S01E00003230395F7465616D34395F61746D65676133323870622E73726563BB
S11300000C945A000C9477000C9477000C947700AD
S11300100C9477000C9477000C9477000C94770080
S11300200C9477000C9477000C9477000C940A01DC
S11300300C9477000C9477000C9477000C94770060
S11300400C9477000C9477000C9477000C94770050
S11300500C9477000C94A4000C9477000C94770013
S11300600C9477000C9477000C9477000C94770030
S11300700C9477000C9477000C9477000C94770020
S11300800C9477000C9477000C9477000C94770010
S11300900C9477000C9477000C9477000C94770000
S11300A00C9477000C9477000C9477000C947700F0
S11300B00C94770011241FBECFEFD8E0DEBFCDBF74
S11300C011E0A0E0B1E0E0E1FFE002C005900D9294
S11300D0A037B107D9F722E0A0E7B1E001C01D9233
S11300E0A833B207E1F70E941F010C9486070C9411
S11300F000001092800089E08093810088E690E0FF
S11301009093890080938800109285001092840057
S113011082E080936F000895ECE7F0E080818F73B4
S113012080838081807F8083808182608083EAE70E
S1130130F0E083E8808310927B0080818860808374
S11301400E947900789408951F920F920FB60F922F
S113015011248F939F93EF93FF938091020188233F
S113016081F08091780090917900909301018093BF
S113017000011092020180917C00807F80937C00BA
S113018040C08091720181113CC080917001E09166
S11301907101F0E0811109C080917800909179009B
S11301A0EE0FFF1FEE51FE4F08C080917800909132
S11301B07900EE0FFF1FEA56FE4F918380838091F2
S11301C071018F5F80937101809171018632C8F053
S11301D01092710180917001811109C080917C009D
S11301E0816080937C0081E0809370010AC08091DB
S11301F07C008E7F80937C001092700181E080935C
S11302007201FF91EF919F918F910F900FBE0F900C
S11302101F9018951F920F920FB60F9211248F936F
S1130220EF93FF93EAE7F0E0808180648083FF919D
S1130230EF918F910F900FBE0F901F9018950E9411
S1130240AB010E948C00809102018111FCCF0E94BD
S1130250380183E091E00E94C1010E941F04809153
S113026073018823D1F30E94EE0410927301F5CF39
S1130270CF92DF92EF92FF926091000170910101A1
S113028080E090E00E942B0620E030E040EA50E459
S11302900E94B90620E030EC4FE754E40E94830545
S11302A06B017C0183E59AE4A5E1B0E080939201BF
S11302B090939301A0939401B093950120E030E2D0
S11302C048E055E4C701B6010E94B90620E030E0D9
S11302D040E058E40E94B90620E030E040E05FE3EB
S11302E00E9417050E94F50560938A0170938B01A3
S11302F080938C0190938D0185EF91EDA7E0B0E0A0
S113030080938E0190938F01A0939001B0939101FB
S113031020E030E048E454E4C701B6010E94B90685
S113032020E030E040E058E40E94B90620E030E0EC
S113033040E05FE30E9417050E94F5056093860183
S1130340709387018093880190938901FF90EF90C7
S1130350DF90CF9008951092C5008CE08093C40084
S113036082E08093C00088E08093C10086E080939F
S1130370C20008959091C00095FFFCCF8093C60001
S113038008951F93CF93DF93EC0110E0812F90E049
S1130390FE0101900020E9F73197EC1BFD0B8E174D
S11303A09F0740F4FE01E80FF91F80810E94BA0103
S11303B01F5FECCFDF91CF911F9108952F923F9251
S11303C04F925F926F927F928F929F92AF92BF9261
S11303D0CF92DF92EF92FF920F931F93CF93DF930D
S11303E0CDB7DEB76A970FB6F894DEBF0FBECDBFA8
S11303F02091920130919301409194015091950183
S113040029873A874B875C8780918A0190918B0179
S1130410A0918C01B0918D018D879E87AF87B88B99
S113042020918E0130918F01409190015091910162
S1130430298B3A8B4B8B5C8B809186019091870141
S1130440A0918801B09189018D8B9E8BAF8BB88F61
S11304502091820130918301409184015091850162
S11304602D833E834F83588780917E0190917F0135
S1130470A0918001B091810189839A83AB83BC836D
S113048040907A0150907B0160907C0170907D01D6
S1130490212C312C00E010E01A8E198EF101EE0FA0
S11304A0FF1FDF01AE51BE4F0D90BC91A02D2985D9
S11304B03A854B855C850E946C074B015C012D8558
S11304C03E854F855889821A930AA40AB50A91E198
S11304D0B594A794979487949A95D1F7EA56FE4FCA
S11304E0A081B18129893A894B895C890E946C0772
S11304F06B017C012D893E894F89588DC21AD30A1C
S1130500E40AF50A21E1F594E794D794C7942A956F
S1130510D1F7940197FE04C02227332728193909FB
S1130520C601D7FE04C0882799278C199D09498DD7
S11305305A8D4217530710F43A8F298F0817190759
S113054008F48C01A5019401C501B4010E94260799
S11305502D813E814F815885260F371F481F591F13
S11305602D833E834F835887A7019601C701B601A7
S11305700E94260729813A814B815C81260F371F0F
S1130580481F591F29833A834B835C83A501940137
S1130590C701B6010E942607460E571E681E791E23
S11305A03FEF231A330A46E22416310409F076CFCA
S11305B08D819E81AF81B885809382019093830160
S11305C0A0938401B093850129813A814B815C8198
S11305D020937E0130937F014093800150938101E9
S11305E040927A0150927B0160927C0170927D016D
S11305F08091780190917901498D5A8D84179507DE
S113060020F4509379014093780180917601909180
S113061077018017910720F41093770100937601F6
S11306208091740190917501019690937501809366
S113063074016A960FB6F894DEBF0FBECDBFDF918A
S1130640CF911F910F91FF90EF90DF90CF90BF90CB
S1130650AF909F908F907F906F905F904F903F905E
S11306602F9008958F929F92AF92BF92CF92DF9274
S1130670EF92FF92CF93DF93809174019091750173
S11306800A9708F4D1C0609182017091830180912E
S11306908401909185012CE731E040E050E00E9414
S11306A04A0749015A01211531054105510549F10E
S11306B069017A018FEFC81AD80AE80AF80AF69491
S11306C0E794D794C794D501C401C816D906EA069D
S11306D0FB06A8F4C501B401A70196010E944A07CC
S11306E0BA01A9014C0D5D1D6E1D7F1DD701C60108
S11306F06A017B01F694E794D794C794E6CFEC01A2
S113070002C0C0E0D0E060917E0170917F018091D1
S11307108001909181012CE731E040E050E00E949B
S11307204A0749015A01211531054105510549F18D
S113073069017A018FEFC81AD80AE80AF80AF69410
S1130740E794D794C794D501C401C816D906EA061C
S1130750FB06A8F4C501B401A70196010E944A074B
S1130760BA01A9014C0D5D1D6E1D7F1DD701C60187
S11307706A017B01F694E794D794C794E6CF7C0191
S113078002C0E12CF12C60917A0170917B0180917F
S11307907C0190917D0120E63CEC45E050E00E9414
S11307A04A07D0932F02C0932E0280917801909132
S11307B079019093310280933002F0923302E092F7
S11307C03202809176019091770190933502809363
S11307D03402309337022093360210928201109231
S11307E08301109284011092850110927E0110926F
S11307F07F01109280011092810110927A0110926F
S11308007B0110927C0110927D011092790110926B
S1130810780110927701109276011092750110926E
S1130820740181E080937301DF91CF91FF90EF9089
S1130830DF90CF90BF90AF909F908F90089580915C
S11308407201882351F095B180E1892785B90E940E
S1130850DE01109272010C94320308950F931F93DA
S1130860CF93DF938C01CB010E94C1018BE191E016
S11308700E94C101C80168EE73E00E943607CB01F3
S11308806AE070E00E943607009719F0805D0E94CC
S1130890BA01C80164E670E00E943607CB01CAE0E1
S11308A0D0E0BE010E943607805D0E94BA018EE24C
S11308B00E94BA01C801BE010E943607182FCB015D
S11308C0BE010E943607805D0E94BA0180E3810F59
S11308D00E94BA0186E50E94BA0180E291E0DF91AC
S11308E0CF911F910F910C94C1010F931F93CF933C
S11308F0DF938C01CB010E94C1018BE191E00E9446
S1130900C101C80164E670E00E943607CB01CAE069
S1130910D0E0BE010E943607805D0E94BA01C80182
S1130920BE010E943607182FCB01BE010E94360774
S1130930805D0E94BA0180E3810F0E94BA018EE1BA
S113094091E0DF91CF911F910F910C94C1010F930E
S11309501F93CF93DF938C01CB010E94C1018BE1E4
S113096091E00E94C101C80168EE73E00E9436075D
S1130970CB016AE070E00E943607009719F0805DB1
S11309800E94BA01C80164E670E00E943607CB01F8
S1130990CAE0D0E0BE010E943607805D0E94BA0121
S11309A08EE20E94BA01C801BE010E943607182FC8
S11309B0CB01BE010E943607805D0E94BA0180E32C
S11309C0810F0E94BA0187E50E94BA0180E291E09A
S11309D0DF91CF911F910F910C94C101CF93DF93BD
S11309E0CEE2D2E060E671E0888199810E942E0413
S11309F063E671E08A819B810E942E0466E671E0C1
S1130A008C819D810E94750469E671E08E819F81CD
S1130A100E9475046CE671E0888599850E94A7049C
S1130A2080E291E0DF91CF910C94C1015058BB2733
S1130A30AA270E942E050C947F060E94710638F0A6
S1130A400E94780620F039F49F3F19F426F40C94A0
S1130A506E060EF4E095E7FB0C946806E92F0E94FD
S1130A60900658F3BA17620773078407950720F0B6
S1130A7079F4A6F50C94B2060EF4E0950B2EBA2F79
S1130A80A02D0B01B90190010C01CA01A001112490
S1130A90FF27591B99F0593F50F4503E68F11A163C
S1130AA0F040A22F232F342F4427585FF3CF4695CD
S1130AB037952795A795F0405395C9F77EF41F16EF
S1130AC0BA0B620B730B840BBAF09150A1F0FF0FB9
S1130AD0BB1F661F771F881FC2F70EC0BA0F621FA5
S1130AE0731F841F48F4879577956795B795F79595
S1130AF09E3F08F0B0CF9395880F08F09927EE0F2A
S1130B009795879508950E9497050C947F060E94F7
S1130B10780658F00E94710640F029F45F3F29F0EE
S1130B200C94680651110C94B3060C946E060E9442
S1130B30900668F39923B1F3552391F3951B550B54
S1130B40BB27AA2762177307840738F09F5F5F4F9C
S1130B50220F331F441FAA1FA9F335D00E2E3AF0DB
S1130B60E0E832D091505040E695001CCAF72BD0F3
S1130B70FE2F29D0660F771F881FBB1F2617370744
S1130B804807AB07B0E809F0BB0B802DBF01FF2776
S1130B9093585F4F3AF09E3F510578F00C946806E5
S1130BA00C94B3065F3FE4F3983ED4F386957795AF
S1130BB06795B795F7959F5FC9F7880F911D96952F
S1130BC0879597F90895E1E0660F771F881FBB1F8B
S1130BD0621773078407BA0720F0621B730B840B38
S1130BE0BA0BEE1F88F7E09508950E94FC056894FF
S1130BF0B1110C94B30608950E94980688F09F578B
S1130C0098F0B92F9927B751B0F0E1F0660F771F2C
S1130C10881F991F1AF0BA95C9F714C0B13091F022
S1130C200E94B206B1E008950C94B206672F782FA3
S1130C308827B85F39F0B93FCCF3869577956795E7
S1130C40B395D9F73EF490958095709561957F4F53
S1130C508F4F9F4F0895E89409C097FB3EF49095F9
S1130C608095709561957F4F8F4F9F4F9923A9F081
S1130C70F92F96E9BB279395F69587957795679510
S1130C80B795F111F8CFFAF4BB0F11F460FF1BC054
S1130C906F5F7F4F8F4F9F4F16C0882311F096E9E7
S1130CA011C0772321F09EE8872F762F05C0662395
S1130CB071F096E8862F70E060E02AF09A95660F4E
S1130CC0771F881FDAF7880F9695879597F9089507
S1130CD097F99F6780E870E060E008959FEF80ECEB
S1130CE0089500240A94161617061806090608958E
S1130CF000240A9412161306140605060895092EF4
S1130D000394000C11F4882352F0BB0F40F4BF2B62
S1130D1011F460FF04C06F5F7F4F8F4F9F4F0895A2
S1130D2057FD9058440F551F59F05F3F71F0479598
S1130D30880F97FB991F61F09F3F79F0879508957D
S1130D40121613061406551FF2CF4695F1DF08C09C
S1130D50161617061806991FF1CF869571056105B9
S1130D6008940895E894BB2766277727CB0197F961
S1130D7008950E94CC060C947F060E94710638F0F8
S1130D800E94780620F0952311F00C9468060C94C8
S1130D906E0611240C94B3060E94900670F3959F7E
S1130DA0C1F3950F50E0551F629FF001729FBB275E
S1130DB0F00DB11D639FAA27F00DB11DAA1F649FFA
S1130DC06627B00DA11D661F829F2227B00DA11DAD
S1130DD0621F739FB00DA11D621F839FA00D611D33
S1130DE0221F749F3327A00D611D231F849F600D54
S1130DF0211D822F762F6A2F11249F5750409AF07D
S1130E00F1F088234AF0EE0FFF1FBB1F661F771F08
S1130E10881F91505040A9F79E3F510580F00C94D3
S1130E2068060C94B3065F3FE4F3983ED4F38695CA
S1130E3077956795B795F795E7959F5FC1F7FE2B73
S1130E40880F911D9695879597F90895DB018F93E7
S1130E509F930E946C07BF91AF91A29F800D911D3B
S1130E60A39F900DB29F900D11240895AA1BBB1B44
S1130E7051E107C0AA1FBB1FA617B70710F0A61B96
S1130E80B70B881F991F5A95A9F780959095BC01B7
S1130E90CD010895A1E21A2EAA1BBB1BFD010DC0B2
S1130EA0AA1FBB1FEE1FFF1FA217B307E407F50716
S1130EB020F0A21BB30BE40BF50B661F771F881FF2
S1130EC0991F1A9469F760957095809590959B0188
S1130ED0AC01BD01CF0108950E947707A59F900D35
S1130EE0B49F900DA49F800D911D11240895A29F7D
S1130EF0B001B39FC001A39F700D811D1124911DEA
S1130F00B29F700D811D1124911D0895F894FFCF97
S1130F10AE0101506F776572204D6F6E69746F7208
S1130F2020537461727465640D0A003A20006D41A7
S1130F300D0A00524D5320566F6C74616765005062
S1130F4065616B20566F6C7461676500524D532068
S1130F5043757272656E74005065616B20437572DF
S1130F6072656E74005265616C20506F7765720013
S1130F7072560070560072430070430072500000B5
S9030000FC
