:100000000C945A000C9463010C9477000C947700C4
:100010000C9477000C9477000C9477000C94770084
:100020000C9477000C9477000C9477000C944E019C
:100030000C9477000C9477000C9477000C94770064
:100040000C9477000C9477000C9477000C94770054
:100050000C9477000C94CE000C9477000C947700ED
:100060000C9477000C9477000C9477000C94770034
:100070000C9477000C9477000C9477000C94770024
:100080000C9477000C9477000C9477000C94770014
:100090000C9477000C9477000C9477000C94770004
:1000A0000C9477000C9477000C9477000C947700F4
:1000B0000C94770011241FBECFEFD8E0DEBFCDBF78
:1000C00011E0A0E0B1E0E8E1F0E102C005900D929E
:1000D000A233B107D9F721E0A2E3B1E001C01D923C
:1000E000A13BB207E1F70E9496010C940A080C9418
:1000F00000001092800089E08093810081ED90E003
:10010000909389008093880010928500109284005B
:1001100082E080936F000895109285001092840011
:1001200082E086BBE1E8F0E0808181608083EFE6D9
:10013000F0E08081826080830895E1E8F0E08081D2
:10014000887F8083EFE6F0E080818D7F808382E08E
:1001500086BB089552985A9AE9E6F0E08081836060
:100160008083E09AE89A0895ECE7F0E080818F734D
:1001700080838081807F8083808182608083EAE7C2
:10018000F0E081E8808310927B008081886080832A
:100190000E9479000E94AA00789408951F920F92FD
:1001A0000FB60F9211242F933F934F935F936F934A
:1001B0007F938F939F93AF93BF93EF93FF93809120
:1001C0000101882391F080917800909179009093BB
:1001D0003601809335011092010180917C00807F6F
:1001E00080937C000E949D0048C08091000188237C
:1001F00019F01092000141C080913301E091340167
:10020000F0E0811109C08091780090917900EE0FA3
:10021000FF1FEF57FE4F08C0809178009091790042
:10022000EE0FFF1FE55AFE4F9183808380913401CA
:100230008F5F80933401809134018331F0F010920C
:1002400034010E949D001092320181E080930001F0
:1002500090913301911108C08093330180917C000B
:10026000816080937C0009C01092330190917C00E2
:100270009E7F90937C0080933701FF91EF91BF9117
:10028000AF919F918F917F916F915F914F913F912E
:100290002F910F900FBE0F901F9018951F920F92E5
:1002A0000FB60F9211248F93EF93FF93EAE7F0E0DC
:1002B000808180648083FF91EF918F910F900FBEBA
:1002C0000F901F9018951F920F920FB60F92112446
:1002D0002F933F934F935F936F937F938F939F934E
:1002E000AF93BF93EF93FF938091010181110DC0F4
:1002F00080913701811109C080913201811105C0BF
:1003000081E0809332010E948C00FF91EF91BF91B8
:10031000AF919F918F917F916F915F914F913F919D
:100320002F910F900FBE0F901F9018950E942202E0
:100330000E94B400809101018111FCCF0E94AF01A5
:1003400082E091E00E9435020E949304809138017E
:100350008823D1F30E94720510923801F5CFCF9215
:10036000DF92EF92FF92609135017091360180E04B
:1003700090E00E94AF0620E030E040EA50E40E94A6
:100380003D0720E030EC4FE754E40E9407066B0184
:100390007C0183E59AE4A5E1B0E080935701909356
:1003A0005801A0935901B0935A0120E030E248E08F
:1003B00055E4C701B6010E943D0720E030E040E06F
:1003C00058E40E943D0720E030E040E05FE30E94F7
:1003D0009B050E94790660934F01709350018093B2
:1003E00051019093520185EF91EDA7E0B0E0809329
:1003F000530190935401A0935501B093560120E00E
:1004000030E048E454E4C701B6010E943D0720E013
:1004100030E040E058E40E943D0720E030E040E05A
:100420005FE30E949B050E94790660934B017093E5
:100430004C0180934D0190934E01FF90EF90DF901F
:10044000CF9008951092C5008CE08093C40088E09E
:100450008093C10086E08093C20008959091C0000F
:1004600095FFFCCF8093C60008951F93CF93DF9331
:10047000EC0110E0812F90E0FE0101900020E9F7EF
:100480003197EC1BFD0B8E179F0740F4FE01E80F20
:10049000F91F80810E942E021F5FECCFDF91CF9168
:1004A0001F9108952F923F924F925F926F927F9289
:1004B0008F929F92AF92BF92CF92DF92EF92FF9274
:1004C0000F931F93CF93DF93CDB7DEB76A970FB625
:1004D000F894DEBF0FBECDBF209157013091580177
:1004E0004091590150915A0129873A874B875C877F
:1004F00080914F0190915001A0915101B091520112
:100500008D879E87AF87B88B20915301309154011E
:100510004091550150915601298B3A8B4B8B5C8B46
:1005200080914B0190914C01A0914D01B0914E01F1
:100530008D8B9E8BAF8BB88F2091470130914801F6
:100540004091490150914A012D833E834F83588742
:100550008091430190914401A0914501B0914601E1
:1005600089839A83AB83BC8340903F0150904001C4
:100570006090410170904201212C312C00E010E08C
:100580001A8E198EF101EE0FFF1FDF01AF57BE4F1C
:100590000D90BC91A02D29853A854B855C850E94E4
:1005A000F0074B015C012D853E854F855889821AE5
:1005B000930AA40AB50A91E1B594A79497948794F5
:1005C0009A95D1F7E55AFE4FA081B18129893A89E0
:1005D0004B895C890E94F0076B017C012D893E8963
:1005E0004F89588DC21AD30AE40AF50A21E1F5941D
:1005F000E794D794C7942A95D1F7940197FE04C045
:100600002227332728193909C601D7FE04C08827B5
:1006100099278C199D09498D5A8D4217530710F45B
:100620003A8F298F0817190708F48C01A501940146
:10063000C501B4010E94AA072D813E814F815885D2
:10064000260F371F481F591F2D833E834F8358871E
:10065000A7019601C701B6010E94AA0729813A8124
:100660004B815C81260F371F481F591F29833A830E
:100670004B835C83A5019401C701B6010E94AA07C0
:10068000460E571E681E791E3FEF231A330A43E1B8
:100690002416310409F076CF8D819E81AF81B88513
:1006A0008093470190934801A0934901B0934A0178
:1006B00029813A814B815C8120934301309344012D
:1006C000409345015093460140923F0150924001B2
:1006D000609241017092420180913D0190913E01F2
:1006E000498D5A8D8417950720F450933E0140930D
:1006F0003D0180913B0190913C018017910720F4CE
:1007000010933C0100933B018091390190913A0193
:10071000019690933A01809339016A960FB6F89446
:10072000DEBF0FBECDBFDF91CF911F910F91FF9024
:10073000EF90DF90CF90BF90AF909F908F907F9081
:100740006F905F904F903F902F9008958F929F925F
:10075000AF92BF92CF92DF92EF92FF92CF93DF934F
:100760008091390190913A010A9708F4D1C06091C3
:100770004701709148018091490190914A012EEB07
:1007800030E040E050E00E94CE0749015A012115B7
:1007900031054105510549F169017A018FEFC81A08
:1007A000D80AE80AF80AF694E794D794C794D501D2
:1007B000C401C816D906EA06FB06A8F4C501B401AF
:1007C000A70196010E94CE07BA01A9014C0D5D1D3B
:1007D0006E1D7F1DD701C6016A017B01F694E79467
:1007E000D794C794E6CFEC0102C0C0E0D0E060919E
:1007F00043017091440180914501909146012EEB97
:1008000030E040E050E00E94CE0749015A01211536
:1008100031054105510549F169017A018FEFC81A87
:10082000D80AE80AF80AF694E794D794C794D50151
:10083000C401C816D906EA06FB06A8F4C501B4012E
:10084000A70196010E94CE07BA01A9014C0D5D1DBA
:100850006E1D7F1DD701C6016A017B01F694E794E6
:10086000D794C794E6CF7C0102C0E12CF12C6091B3
:100870003F0170914001809141019091420120E33C
:1008800036EE42E050E00E94CE07D093A801C0931C
:10089000A70180913D0190913E019093AA01809320
:1008A000A901F092AC01E092AB0180913B019091E3
:1008B0003C019093AE018093AD013093B001209341
:1008C000AF01109247011092480110924901109215
:1008D0004A01109243011092440110924501109276
:1008E000460110923F011092400110924101109276
:1008F000420110923E0110923D0110923C01109273
:100900003B0110923A011092390181E08093380145
:10091000DF91CF91FF90EF90DF90CF90BF90AF909D
:100920009F908F90089580913701882331F00E9425
:100930005202109237010C94A60308950F931F934F
:10094000CF93DF938C01CB010E9435028AE191E0C5
:100950000E943502C80168EE73E00E94BA07CB011D
:100960006AE070E00E94BA07009719F0805D0E946B
:100970002E02C80164E670E00E94BA07CB01CAE00B
:10098000D0E0BE010E94BA07805D0E942E028EE276
:100990000E942E02C801BE010E94BA07182FCB0187
:1009A000BE010E94BA07805D0E942E0280E3810F83
:1009B0000E942E0286E50E942E028FE191E0DF91D7
:1009C000CF911F910F910C9435020F931F93CF93EA
:1009D000DF93EC01CB010E9435028AE191E00E9495
:1009E0003502C83E83E0D80780F0CE0168EE73E0A0
:1009F0000E94BA07CB016AE070E00E94BA07805DEE
:100A00000E942E028CE20E942E02CE0164E670E06B
:100A10000E94BA07CB010AE010E0B8010E94BA07B1
:100A2000805D0E942E02CE01B8010E94BA07C82F35
:100A3000CB01B8010E94BA07805D0E942E0280E3BC
:100A40008C0F0E942E028DE191E0DF91CF911F91DA
:100A50000F910C9435020F931F93CF93DF938C016A
:100A6000CB010E9435028AE191E00E943502C80163
:100A700068EE73E00E94BA07CB016AE070E00E9462
:100A8000BA07009719F0805D0E942E02C80164E643
:100A900070E00E94BA07CB01CAE0D0E0BE010E941C
:100AA000BA07805D0E942E028EE20E942E02C801CB
:100AB000BE010E94BA07182FCB01BE010E94BA07DF
:100AC000805D0E942E0280E3810F0E942E0287E546
:100AD0000E942E028FE191E0DF91CF911F910F9143
:100AE0000C943502CF93DF93C7EAD1E062E271E064
:100AF000888199810E949E0465E271E08A819B81D0
:100B00000E949E0468E271E08C819D810E94E50450
:100B10006BE271E08E819F810E94E5046EE271E0DC
:100B2000888599850E942B058FE191E0DF91CF9117
:100B30000C9435025058BB27AA270E94B2050C948A
:100B400003070E94F50638F00E94FC0620F039F4F5
:100B50009F3F19F426F40C94F2060EF4E095E7FB9F
:100B60000C94EC06E92F0E94140758F3BA17620799
:100B700073078407950720F079F4A6F50C943607DF
:100B80000EF4E0950B2EBA2FA02D0B01B9019001A8
:100B90000C01CA01A0011124FF27591B99F0593FEC
:100BA00050F4503E68F11A16F040A22F232F342F34
:100BB0004427585FF3CF469537952795A795F04082
:100BC0005395C9F77EF41F16BA0B620B730B840B97
:100BD000BAF09150A1F0FF0FBB1F661F771F881F4F
:100BE000C2F70EC0BA0F621F731F841F48F48795A7
:100BF00077956795B795F7959E3F08F0B0CF939599
:100C0000880F08F09927EE0F9795879508950E9411
:100C10001B060C9403070E94FC0658F00E94F50680
:100C200040F029F45F3F29F00C94EC0651110C942C
:100C300037070C94F2060E94140768F39923B1F366
:100C4000552391F3951B550BBB27AA2762177307F2
:100C5000840738F09F5F5F4F220F331F441FAA1F86
:100C6000A9F335D00E2E3AF0E0E832D09150504042
:100C7000E695001CCAF72BD0FE2F29D0660F771FF0
:100C8000881FBB1F261737074807AB07B0E809F0D6
:100C9000BB0B802DBF01FF2793585F4F3AF09E3F5B
:100CA000510578F00C94EC060C9437075F3FE4F3A1
:100CB000983ED4F3869577956795B795F7959F5F9E
:100CC000C9F7880F911D9695879597F90895E1E0EA
:100CD000660F771F881FBB1F621773078407BA0749
:100CE00020F0621B730B840BBA0BEE1F88F7E095A4
:100CF00008950E9480066894B1110C9437070895F6
:100D00000E941C0788F09F5798F0B92F9927B75178
:100D1000B0F0E1F0660F771F881F991F1AF0BA959F
:100D2000C9F714C0B13091F00E943607B1E00895C0
:100D30000C943607672F782F8827B85F39F0B93FB2
:100D4000CCF3869577956795B395D9F73EF4909552
:100D50008095709561957F4F8F4F9F4F0895E894D0
:100D600009C097FB3EF490958095709561957F4FF3
:100D70008F4F9F4F9923A9F0F92F96E9BB279395A1
:100D8000F695879577956795B795F111F8CFFAF4B1
:100D9000BB0F11F460FF1BC06F5F7F4F8F4F9F4FE2
:100DA00016C0882311F096E911C0772321F09EE840
:100DB000872F762F05C0662371F096E8862F70E0A6
:100DC00060E02AF09A95660F771F881FDAF7880F80
:100DD0009695879597F9089597F99F6780E870E051
:100DE00060E008959FEF80EC089500240A941616A1
:100DF000170618060906089500240A941216130609
:100E0000140605060895092E0394000C11F4882396
:100E100052F0BB0F40F4BF2B11F460FF04C06F5FB2
:100E20007F4F8F4F9F4F089557FD9058440F551F88
:100E300059F05F3F71F04795880F97FB991F61F05C
:100E40009F3F79F087950895121613061406551FD3
:100E5000F2CF4695F1DF08C0161617061806991F3F
:100E6000F1CF86957105610508940895E894BB2734
:100E700066277727CB0197F908950E9450070C94B5
:100E800003070E94F50638F00E94FC0620F0952327
:100E900011F00C94EC060C94F20611240C94370714
:100EA0000E94140770F3959FC1F3950F50E0551FF2
:100EB000629FF001729FBB27F00DB11D639FAA27AF
:100EC000F00DB11DAA1F649F6627B00DA11D661FFE
:100ED000829F2227B00DA11D621F739FB00DA11D1F
:100EE000621F839FA00D611D221F749F3327A00DD9
:100EF000611D231F849F600D211D822F762F6A2F75
:100F000011249F5750409AF0F1F088234AF0EE0FD9
:100F1000FF1FBB1F661F771F881F91505040A9F706
:100F20009E3F510580F00C94EC060C9437075F3F10
:100F3000E4F3983ED4F3869577956795B795F79542
:100F4000E7959F5FC1F7FE2B880F911D96958795BA
:100F500097F90895DB018F939F930E94F007BF914B
:100F6000AF91A29F800D911DA39F900DB29F900DF8
:100F700011240895AA1BBB1B51E107C0AA1FBB1F68
:100F8000A617B70710F0A61BB70B881F991F5A9515
:100F9000A9F780959095BC01CD010895A1E21A2E84
:100FA000AA1BBB1BFD010DC0AA1FBB1FEE1FFF1F0D
:100FB000A217B307E407F50720F0A21BB30BE40B5D
:100FC000F50B661F771F881F991F1A9469F76095A4
:100FD0007095809590959B01AC01BD01CF0108955E
:100FE0000E94FB07A59F900DB49F900DA49F800DBC
:100FF000911D11240895A29FB001B39FC001A39F2A
:10100000700D811D1124911DB29F700D811D112441
:08101000911D0895F894FFCF33
:101018000101506F776572204D6F6E69746F722091
:10102800537461727465640D0A003A20006D410DB5
:101038000A007256007056007243007043007250E6
:021048000000A6
:00000001FF
