S01E00003230395F7465616D34395F61746D65676133323870622E73726563BB
S11300000C945A000C947C010C9477000C947700A7
S11300100C9477000C9477000C9477000C94770080
S11300200C9477000C9477000C9477000C9467017F
S11300300C9477000C9477000C9477000C94770060
S11300400C94D7010C9477000C9477000C947700EF
S11300500C9477000C94E7000C9477000C947700D0
S11300600C9477000C9477000C9477000C94770030
S11300700C9477000C9477000C9477000C94770020
S11300800C9477000C9477000C9477000C94770010
S11300900C9477000C9477000C9477000C94770000
S11300A00C9477000C9477000C9477000C947700F0
S11300B00C94770011241FBECFEFD8E0DEBFCDBF74
S11300C011E0A0E0B1E0E4ECF1E102C005900D9292
S11300D0AA33B107D9F722E0AAE3B1E001C01D9227
S11300E0AE30B207E1F70E94E8010C94E0080C94EA
S11300F00000109280008BE0809381008EE090E0FD
S11301009093890080938800109285001092840057
S113011082E080936F00089514BC15BC85B583609C
S113012085BD81E080936E0016BC08951092850011
S11301301092840082E086BBE1E8F0E08081836075
S11301408083EFE6F0E08081826080830895E1E8B7
S1130150F0E08081887F8083EFE6F0E080818D7F0E
S1130160808382E086BB089516BC81E085BB85B59B
S1130170836085BD089585B5887F85BD81E085BB95
S1130180089552985A9AE9E6F0E08081836080836A
S1130190E09AE89A0895ECE7F0E080818F73808319
S11301A08081807F8083808182608083EAE7F0E0C1
S11301B086E8808310927B008081886080830E941F
S11301C079000E94C1000E948C00789408951F92C7
S11301D00F920FB60F9211242F933F934F935F9377
S11301E06F937F938F939F93AF93BF93EF93FF93FB
S11301F080910101882391F0809178009091790099
S113020090934101809340011092010180917C0000
S1130210807F80937C000E94A70048C080910001E9
S1130220882319F01092000141C080913E01E091B1
S11302303F01F0E0811109C080917800909179002C
S1130240EE0FFF1FE054FE4F08C08091780090919C
S11302507900EE0FFF1FE659FE4F91838083809152
S11302603F018F5F80933F0180913F018132F0F025
S113027010923F010E94A70010923D0181E08093FB
S1130280000190913E01911108C080933E0180913C
S11302907C00816080937C0009C010923E019091A3
S11302A07C009E7F90937C0080934201FF91EF91AC
S11302B0BF91AF919F918F917F916F915F914F917A
S11302C03F912F910F900FBE0F901F9018951F9282
S11302D00F920FB60F9211248F93EF93FF93EAE7D7
S11302E0F0E0808180648083FF91EF918F910F9083
S11302F00FBE0F901F9018951F920F920FB60F927A
S113030011242F933F934F935F936F937F938F9316
S11303109F93AF93BF93EF93FF9380913B01811120
S113032024C0E0913C01F0E026B580913A0190E0D0
S1130330982F8827820F911DEE0FFF1FE455FE4F63
S11303409183808310923A0180913C018F5F809366
S11303503C0180913C018A3038F010923C0181E0EC
S113036080933B010E94BB0016BC80910101811166
S11303700DC080914201811109C080913D0181111C
S113038005C081E080933D010E949600FF91EF91AA
S1130390BF91AF919F918F917F916F915F914F9199
S11303A03F912F910F900FBE0F901F9018951F92A1
S11303B00F920FB60F9211248F9380913A018F5FA1
S11303C080933A018F910F900FBE0F901F90189554
S11303D00E9474020E94CB00809101018111FCCF24
S11303E00E94010282E091E00E9487020E9422059D
S11303F0809143018823D1F30E9442061092430165
S1130400F5CFCF92DF92EF92FF926091400170910D
S1130410410180E090E00E94850720E030E040EA5E
S113042050E40E94130820E030EC4FE754E40E94AB
S1130430DD066B017C0183E59AE4A5E1B0E08093DD
S1130440660190936701A0936801B093690120E06D
S113045030E248E055E4C701B6010E94130820E0E9
S113046030E040E058E40E94130820E030E040E02F
S11304705FE30E9471060E944F0760935E017093D0
S11304805F01809360019093610185EF91EDA7E096
S1130490B0E08093620190936301A0936401B093F0
S11304A0650120E030E048E454E4C701B6010E944D
S11304B0130820E030E040E058E40E94130820E0F4
S11304C030E040E05FE30E9471060E944F076093B2
S11304D05A0170935B0180935C0190935D01FF90DE
S11304E0EF90DF90CF9008951092C50087E6809337
S11304F0C40088E08093C10086E08093C200089520
S11305009091C00095FFFCCF8093C60008951F937F
S1130510CF93DF93EC0110E0812F90E0FE01019076
S11305200020E9F73197EC1BFD0B8E179F0740F471
S1130530FE01E80FF91F80810E9480021F5FECCF4B
S1130540DF91CF911F9108952F923F924F925F9226
S11305506F927F928F929F92AF92BF92CF92DF92CF
S1130560EF92FF920F931F93CF93DF93CDB7DEB734
S11305706A970FB6F894DEBF0FBECDBF2091660117
S113058030916701409168015091690129873A8748
S11305904B875C8780915E0190915F01A09160011F
S11305A0B09161018D879E87AF87B88B20916201DE
S11305B0309163014091640150916501298B3A8B1C
S11305C04B8B5C8B80915A0190915B01A0915C01F3
S11305D0B0915D018D8B9E8BAF8BB88F20915601AE
S11305E03091570140915801509159012D833E8318
S11305F04F8358878091520190915301A0915401E7
S1130600B091550189839A83AB83BC8340904E019A
S113061050904F016090500170905101212C312C69
S113062000E010E01A8E198EF101EE0FFF1FDF01BA
S1130630A054BE4F0D90BC91A02D29853A854B85C1
S11306405C850E94C6084B015C012D853E854F8563
S11306505889821A930AA40AB50A91E1B594A79419
S1130660979487949A95D1F7E659FE4FA081B1816A
S113067029893A894B895C890E94C6086B017C01EF
S11306802D893E894F89588DC21AD30AE40AF50A86
S113069021E1F594E794D794C7942A95D1F794016E
S11306A097FE04C02227332728193909C601D7FE2B
S11306B004C0882799278C199D09498D5A8D4217A2
S11306C0530710F43A8F298F0817190708F48C017F
S11306D0A5019401C501B4010E9480082D813E81C9
S11306E04F815885260F371F481F591F2D833E837E
S11306F04F835887A7019601C701B6010E9480085D
S113070029813A814B815C81260F371F481F591F6D
S113071029833A834B835C83A5019401C701B60105
S11307200E948008460E571E681E791E3FEF231A4A
S1130730330A41E22416310409F076CF8D819E817B
S1130740AF81B8858093560190935701A0935801C7
S1130750B093590129813A814B815C8120935201E4
S113076030935301409354015093550140924E01EC
S113077050924F01609250017092510180914C014E
S113078090914D01498D5A8D8417950720F450930B
S11307904D0140934C0180914A0190914B01801787
S11307A0910720F410934B0100934A018091480172
S11307B090914901019690934901809348016A966A
S11307C00FB6F894DEBF0FBECDBFDF91CF911F915E
S11307D00F91FF90EF90DF90CF90BF90AF909F90DC
S11307E08F907F906F905F904F903F902F900895DF
S11307F08F929F92AF92BF92CF92DF92EF92FF922D
S1130800CF93DF9380914801909149010A9708F4AE
S11308100EC16091560170915701809158019091D9
S113082059012AE431E040E050E00E94A408490163
S11308305A01211531054105510549F169017A0132
S11308408FEFC81AD80AE80AF80AF694E794D794FE
S1130850C794DA01C901C816D906EA06FB06A8F44A
S1130860C501B401A70196010E94A408BA01A90117
S11308704C0D5D1D6E1D7F1DD701C6016A017B01F4
S1130880F694E794D794C794E6CFEC0102C0C0E095
S1130890D0E0609152017091530180915401909184
S11308A055012AE431E040E050E00E94A4084901E7
S11308B05A01211531054105510549F169017A01B2
S11308C08FEFC81AD80AE80AF80AF694E794D7947E
S11308D0C794DA01C901C816D906EA06FB06A8F4CA
S11308E0C501B401A70196010E94A408BA01A90197
S11308F04C0D5D1D6E1D7F1DD701C6016A017B0174
S1130900F694E794D794C794E6CF7C0102C0E12C17
S1130910F12C60914E0170914F01809150019091A2
S1130920510120E139E045E050E00E94A40849016A
S11309305A0180913B01882379F12091440130913F
S11309404501409146015091470180E090E0FC014F
S1130950EE0FFF1FE455FE4F60817181260F371F94
S1130960411D511D01968A30910589F72093440158
S113097030934501409346015093470160E478E782
S11309808DE791E00E94A40830930D0220930C029D
S113099010923B010E94B400D0930302C093020260
S11309A080914C0190914D01909305028093040233
S11309B0F0920702E092060280914A0190914B0165
S11309C0909309028093080290920B0280920A028B
S11309D01092560110925701109258011092590129
S11309E01092520110925301109254011092550129
S11309F010924E0110924F01109250011092510129
S1130A0010924D0110924C0110924B0110924A0128
S1130A10109249011092480110924401109245012C
S1130A20109246011092470181E080934301DF91C7
S1130A30CF91FF90EF90DF90CF90BF90AF909F90B9
S1130A408F90089580914201882331F00E94A4027E
S1130A50109242010C94F80308950F931F93CF93BF
S1130A60DF938C01CB010E9487028AE191E00E940E
S1130A708702C80168EE73E00E949008CB016AE027
S1130A8070E00E949008009719F0805D0E94800237
S1130A90C80164E670E00E949008CB01CAE0D0E08F
S1130AA0BE010E949008805D0E9480028EE20E9436
S1130AB08002C801BE010E949008182FCB01BE011C
S1130AC00E949008805D0E94800280E3810F0E9452
S1130AD0800286E50E9480028FE191E0DF91CF9150
S1130AE01F910F910C9487020F931F93CF93DF9361
S1130AF0EC01CB010E9487028AE191E00E94870207
S1130B00C83E83E0D80780F0CE0168EE73E00E940F
S1130B109008CB016AE070E00E949008805D0E941A
S1130B2080028CE20E948002CE0164E670E00E94A2
S1130B309008CB010AE010E0B8010E949008805DA3
S1130B400E948002CE01B8010E949008C82FCB01F8
S1130B50B8010E949008805D0E94800280E38C0F9F
S1130B600E9480028DE191E0DF91CF911F910F915E
S1130B700C9487020F931F93CF93DF938C01CB01C7
S1130B800E9487028AE191E00E948702C80168EE10
S1130B9073E00E949008CB016AE070E00E94900824
S1130BA0009719F0805D0E948002C80164E670E03D
S1130BB00E949008CB01CAE0D0E0BE010E949008D8
S1130BC0805D0E9480028EE20E948002C801BE0104
S1130BD00E949008182FCB01BE010E949008805DEE
S1130BE00E94800280E3810F0E94800287E50E94B8
S1130BF080028FE191E0DF91CF911F910F910C94CE
S1130C0087020F931F93CF93DF938C01CB010E9434
S1130C1087028AE191E00E948702C80168EE73E0CE
S1130C200E949008CB01CAE0D0E0BE010E94900867
S1130C30805D0E948002C80164E670E00E94900812
S1130C40CB01BE010E949008805D0E948002C80111
S1130C50BE010E949008182FCB01BE010E9490088B
S1130C60805D0E9480028EE20E94800280E3810FF8
S1130C700E94800282E291E0DF91CF911F910F9157
S1130C800C948702CF93DF93C2E0D2E067E271E075
S1130C90888199810E942D056AE271E08A819B8195
S1130CA00E942D056DE271E08C819D810E94740586
S1130CB060E371E08E819F810E94740563E371E0BB
S1130CC0888599850E94BA0566E371E08A859B85CB
S1130CD00E9401068FE191E0DF91CF910C9487028D
S1130CE05058BB27AA270E9488060C94D9070E9453
S1130CF0CB0738F00E94D20720F039F49F3F19F453
S1130D0026F40C94C8070EF4E095E7FB0C94C20794
S1130D10E92F0E94EA0758F3BA176207730784079A
S1130D20950720F079F4A6F50C940C080EF4E095E0
S1130D300B2EBA2FA02D0B01B90190010C01CA0191
S1130D40A0011124FF27591B99F0593F50F4503E3C
S1130D5068F11A16F040A22F232F342F4427585F2E
S1130D60F3CF469537952795A795F0405395C9F746
S1130D707EF41F16BA0B620B730B840BBAF09150FE
S1130D80A1F0FF0FBB1F661F771F881FC2F70EC09D
S1130D90BA0F621F731F841F48F487957795679570
S1130DA0B795F7959E3F08F0B0CF9395880F08F05C
S1130DB09927EE0F9795879508950E94F1060C9454
S1130DC0D9070E94D20758F00E94CB0740F029F4BB
S1130DD05F3F29F00C94C20751110C940D080C9438
S1130DE0C8070E94EA0768F39923B1F3552391F3E6
S1130DF0951B550BBB27AA2762177307840738F086
S1130E009F5F5F4F220F331F441FAA1FA9F335D0E2
S1130E100E2E3AF0E0E832D091505040E695001C96
S1130E20CAF72BD0FE2F29D0660F771F881FBB1F50
S1130E30261737074807AB07B0E809F0BB0B802D2E
S1130E40BF01FF2793585F4F3AF09E3F510578F05A
S1130E500C94C2070C940D085F3FE4F3983ED4F35E
S1130E60869577956795B795F7959F5FC9F7880F2E
S1130E70911D9695879597F90895E1E0660F771F80
S1130E80881FBB1F621773078407BA0720F0621B11
S1130E90730B840BBA0BEE1F88F7E09508950E943C
S1130EA056076894B1110C940D0808950E94F20736
S1130EB088F09F5798F0B92F9927B751B0F0E1F017
S1130EC0660F771F881F991F1AF0BA95C9F714C0C7
S1130ED0B13091F00E940C08B1E008950C940C0814
S1130EE0672F782F8827B85F39F0B93FCCF3869500
S1130EF077956795B395D9F73EF49095809570955D
S1130F0061957F4F8F4F9F4F0895E89409C097FBD9
S1130F103EF490958095709561957F4F8F4F9F4FCC
S1130F209923A9F0F92F96E9BB279395F695879510
S1130F3077956795B795F111F8CFFAF4BB0F11F4D3
S1130F4060FF1BC06F5F7F4F8F4F9F4F16C088237A
S1130F5011F096E911C0772321F09EE8872F762FB0
S1130F6005C0662371F096E8862F70E060E02AF0F1
S1130F709A95660F771F881FDAF7880F96958795DD
S1130F8097F9089597F99F6780E870E060E0089505
S1130F909FEF80EC089500240A941616170618068D
S1130FA00906089500240A94121613061406050669
S1130FB00895092E0394000C11F4882352F0BB0FFA
S1130FC040F4BF2B11F460FF04C06F5F7F4F8F4F5D
S1130FD09F4F089557FD9058440F551F59F05F3F98
S1130FE071F04795880F97FB991F61F09F3F79F047
S1130FF087950895121613061406551FF2CF4695C9
S1131000F1DF08C0161617061806991FF1CF86954A
S11310107105610508940895E894BB27662777272E
S1131020CB0197F908950E9426080C94D9070E94D1
S1131030CB0738F00E94D20720F0952311F00C94CE
S1131040C2070C94C80711240C940D080E94EA07E7
S113105070F3959FC1F3950F50E0551F629FF00107
S1131060729FBB27F00DB11D639FAA27F00DB11D20
S1131070AA1F649F6627B00DA11D661F829F2227A9
S1131080B00DA11D621F739FB00DA11D621F839F30
S1131090A00D611D221F749F3327A00D611D231F06
S11310A0849F600D211D822F762F6A2F11249F5754
S11310B050409AF0F1F088234AF0EE0FFF1FBB1F57
S11310C0661F771F881F91505040A9F79E3F510516
S11310D080F00C94C2070C940D085F3FE4F3983E33
S11310E0D4F3869577956795B795F795E7959F5FC0
S11310F0C1F7FE2B880F911D9695879597F9089552
S1131100DB018F939F930E94C608BF91AF91A29F6A
S1131110800D911DA39F900DB29F900D11240895F1
S1131120AA1BBB1B51E107C0AA1FBB1FA617B70709
S113113010F0A61BB70B881F991F5A95A9F7809525
S11311409095BC01CD010895A1E21A2EAA1BBB1BE8
S1131150FD010DC0AA1FBB1FEE1FFF1FA217B3077F
S1131160E407F50720F0A21BB30BE40BF50B661F95
S1131170771F881F991F1A9469F760957095809559
S113118090959B01AC01BD01CF0108950E94D10847
S1131190A59F900DB49F900DA49F800D911D1124C7
S11311A00895A29FB001B39FC001A39F700D811D3C
S11311B01124911DB29F700D811D1124911D08955C
S10711C0F894FFCFCD
S11311C40101506F776572204D6F6E69746F7220E0
S11311D4537461727465640D0A003A20006D410D04
S11311E40A00487A0D0A00725600705600724300D1
S10D11F470430072500066710000A1
S9030000FC
