:100000000C945A000C946E010C9477000C947700B9
:100010000C9477000C9477000C9477000C94770084
:100020000C9477000C9477000C9477000C944E019C
:100030000C9477000C9477000C9477000C94770064
:100040000C9477000C9477000C9477000C94770054
:100050000C9477000C94CE000C9477000C947700ED
:100060000C9477000C9477000C9477000C94770034
:100070000C9477000C9477000C9477000C94770024
:100080000C9477000C9477000C9477000C94770014
:100090000C9477000C9477000C9477000C94770004
:1000A0000C9477000C9477000C9477000C947700F4
:1000B0000C94770011241FBECFEFD8E0DEBFCDBF78
:1000C00011E0A0E0B1E0E8E4F0E102C005900D929B
:1000D000A037B107D9F722E0A0E7B1E001C01D9237
:1000E000AD33B207E1F70E94AA010C9422080C94E8
:1000F00000001092800089E08093810088E690E003
:10010000909389008093880010928500109284005B
:1001100082E080936F000895109285001092840011
:1001200082E086BBE1E8F0E0808181608083EFE6D9
:10013000F0E08081826080830895E1E8F0E08081D2
:10014000887F8083EFE6F0E080818D7F808382E08E
:1001500086BB089552985A9AE9E6F0E08081836060
:100160008083E09AE89A0895ECE7F0E080818F734D
:1001700080838081807F8083808182608083EAE7C2
:10018000F0E083E8808310927B0080818860808328
:100190000E9479000E94AA00789408951F920F92FD
:1001A0000FB60F9211242F933F934F935F936F934A
:1001B0007F938F939F93AF93BF93EF93FF93809120
:1001C0000301882391F080917800909179009093B9
:1001D0000201809301011092030180917C00807FD5
:1001E00080937C000E949D0048C08091000188237C
:1001F00019F01092000141C080917501E0917601E3
:10020000F0E0811109C08091780090917900EE0FA3
:10021000FF1FE951FE4F08C080917800909179004E
:10022000EE0FFF1FE556FE4F91838083809176018C
:100230008F5F80937601809176018632F0F0109284
:1002400076010E949D001092740181E0809300016C
:1002500090917501911108C08093750180917C0087
:10026000816080937C0009C01092750190917C00A0
:100270009E7F90937C0080937701FF91EF91BF91D7
:10028000AF919F918F917F916F915F914F913F912E
:100290002F910F900FBE0F901F9018951F920F92E5
:1002A0000FB60F9211248F939F93EF93FF93EAE77A
:1002B000F0E080818064808380917201909173016D
:1002C00001969093730180937201FF91EF919F913A
:1002D0008F910F900FBE0F901F9018951F920F9245
:1002E0000FB60F9211242F933F934F935F936F9309
:1002F0007F938F939F93AF93BF93EF93FF938091DF
:100300000301811116C080917701811112C0809183
:10031000740181110EC0809170019091710101965C
:10032000909371018093700181E0809374010E9429
:100330008C00FF91EF91BF91AF919F918F917F9131
:100340006F915F914F913F912F910F900FBE0F9042
:100350001F9018950E9436020E94B40080910301FC
:100360008111FCCF0E94C30184E091E00E94490208
:100370000E94A704809178018823D1F30E948A0506
:1003800010927801F5CFCF92DF92EF92FF926091B9
:1003900001017091020180E090E00E94C70620E018
:1003A00030E040EA50E40E94550720E030EC4FE78F
:1003B00054E40E941F066B017C0183E59AE4A5E1E9
:1003C000B0E08093970190939801A0939901B09326
:1003D0009A0120E030E248E055E4C701B6010E94EE
:1003E000550720E030E040E058E40E94550720E047
:1003F00030E040E05FE30E94B3050E949106609305
:100400008F0170939001809391019093920185EFF9
:1004100091EDA7E0B0E08093930190939401A093B5
:100420009501B093960120E030E048E454E4C70120
:10043000B6010E94550720E030E040E058E40E94F9
:10044000550720E030E040E05FE30E94B3050E94E2
:10045000910660938B0170938C0180938D01909332
:100460008E01FF90EF90DF90CF9008951092C5001D
:100470008CE08093C40088E08093C10086E0809384
:10048000C20008959091C00095FFFCCF8093C600F4
:1004900008951F93CF93DF93EC0110E0812F90E03C
:1004A000FE0101900020E9F73197EC1BFD0B8E1740
:1004B0009F0740F4FE01E80FF91F80810E9442026D
:1004C0001F5FECCFDF91CF911F9108952F923F9244
:1004D0004F925F926F927F928F929F92AF92BF9254
:1004E000CF92DF92EF92FF920F931F93CF93DF9300
:1004F000CDB7DEB76A970FB6F894DEBF0FBECDBF9B
:1005000020919701309198014091990150919A0161
:1005100029873A874B875C8780918F019091900162
:10052000A0919101B09192018D879E87AF87B88B82
:100530002091930130919401409195015091960141
:10054000298B3A8B4B8B5C8B80918B0190918C012A
:10055000A0918D01B0918E018D8B9E8BAF8BB88F4A
:1005600020918701309188014091890150918A0141
:100570002D833E834F83588780918301909184011E
:10058000A0918501B091860189839A83AB83BC8356
:1005900040907F01509080016090810170908201B5
:1005A000212C312C00E010E01A8E198EF101EE0F93
:1005B000FF1FDF01A951BE4F0D90BC91A02D2985D1
:1005C0003A854B855C850E9408084B015C012D85AE
:1005D0003E854F855889821A930AA40AB50A91E18B
:1005E000B594A794979487949A95D1F7E556FE4FC2
:1005F000A081B18129893A894B895C890E940808C8
:100600006B017C012D893E894F89588DC21AD30A0E
:10061000E40AF50A21E1F594E794D794C7942A9562
:10062000D1F7940197FE04C02227332728193909EE
:10063000C601D7FE04C0882799278C199D09498DCA
:100640005A8D4217530710F43A8F298F081719074C
:1006500008F48C01A5019401C501B4010E94C207F0
:100660002D813E814F815885260F371F481F591F06
:100670002D833E834F835887A7019601C701B6019A
:100680000E94C20729813A814B815C81260F371F66
:10069000481F591F29833A834B835C83A50194012A
:1006A000C701B6010E94C207460E571E681E791E7A
:1006B0003FEF231A330A46E22416310409F076CFBD
:1006C0008D819E81AF81B885809387019093880149
:1006D000A0938901B0938A0129813A814B815C8181
:1006E00020938301309384014093850150938601C8
:1006F00040927F015092800160928101709282014C
:1007000080917D0190917E01498D5A8D84179507C6
:1007100020F450937E0140937D0180917B01909164
:100720007C018017910720F410937C0100937B01DA
:100730008091790190917A01019690937A0180934A
:1007400079016A960FB6F894DEBF0FBECDBFDF9178
:10075000CF911F910F91FF90EF90DF90CF90BF90BE
:10076000AF909F908F907F906F905F904F903F9051
:100770002F9008958F929F92AF92BF92CF92DF9267
:10078000EF92FF92CF93DF938091790190917A015C
:100790000A9708F4D1C06091870170918801809117
:1007A000890190918A012CE731E040E050E00E94FD
:1007B000E60749015A01211531054105510549F165
:1007C00069017A018FEFC81AD80AE80AF80AF69484
:1007D000E794D794C794D501C401C816D906EA0690
:1007E000FB06A8F4C501B401A70196010E94E60723
:1007F000BA01A9014C0D5D1D6E1D7F1DD701C601FB
:100800006A017B01F694E794D794C794E6CFEC0194
:1008100002C0C0E0D0E060918301709184018091BA
:100820008501909186012CE731E040E050E00E9484
:10083000E60749015A01211531054105510549F1E4
:1008400069017A018FEFC81AD80AE80AF80AF69403
:10085000E794D794C794D501C401C816D906EA060F
:10086000FB06A8F4C501B401A70196010E94E607A2
:10087000BA01A9014C0D5D1D6E1D7F1DD701C6017A
:100880006A017B01F694E794D794C794E6CF7C0184
:1008900002C0E12CF12C60917F0170918001809168
:1008A00081019091820120E63CEC45E050E00E94FD
:1008B000E607D0933402C093330280917D0190917A
:1008C0007E019093360280933502F0923802E092D6
:1008D000370280917B0190917C0190933A02809342
:1008E000390230933C0220933B0210928701109210
:1008F00088011092890110928A011092830110924E
:100900008401109285011092860110927F0110924D
:100910008001109281011092820110927E0110924A
:100920007D0110927C0110927B0110927A0110924D
:10093000790181E080937801DF91CF91FF90EF9072
:10094000DF90CF90BF90AF909F908F90089580914F
:100950007701882351F095B180E1892785B90E94FC
:100960006602109277010C94BA0308950F931F93B7
:10097000CF93DF938C01CB010E9449028CE191E07F
:100980000E944902C80168EE73E00E94D207CB01C1
:100990006AE070E00E94D207009719F0805D0E9423
:1009A0004202C80164E670E00E94D207CB01CAE0AF
:1009B000D0E0BE010E94D207805D0E9442028EE21A
:1009C0000E944202C801BE010E94D207182FCB012B
:1009D000BE010E94D207805D0E94420280E3810F27
:1009E0000E94420286E50E94420281E291E0DF918C
:1009F000CF911F910F910C9449020F931F93CF93A6
:100A0000DF93EC01CB010E9449028CE191E00E944E
:100A10004902C83E83E0D80780F0CE0168EE73E05B
:100A20000E94D207CB016AE070E00E94D207805D8D
:100A30000E9442028CE20E944202CE0164E670E013
:100A40000E94D207CB010AE010E0B8010E94D20751
:100A5000805D0E944202CE01B8010E94D207C82FD9
:100A6000CB01B8010E94D207805D0E94420280E360
:100A70008C0F0E9442028FE191E0DF91CF911F9194
:100A80000F910C9449020F931F93CF93DF938C0126
:100A9000CB010E9449028CE191E00E944902C80109
:100AA00068EE73E00E94D207CB016AE070E00E941A
:100AB000D207009719F0805D0E944202C80164E6E7
:100AC00070E00E94D207CB01CAE0D0E0BE010E94D4
:100AD000D207805D0E9442028EE20E944202C8015B
:100AE000BE010E94D207182FCB01BE010E94D2077F
:100AF000805D0E94420280E3810F0E94420287E5EE
:100B00000E94420281E291E0DF91CF911F910F910B
:100B10000C944902CF93DF93C3E3D2E061E671E026
:100B2000888199810E94B60464E671E08A819B8184
:100B30000E94B60467E671E08C819D810E94FD04ED
:100B40006AE671E08E819F810E94FD046DE671E08E
:100B5000888599850E94430581E291E0DF91CF91DC
:100B60000C9449025058BB27AA270E94CA050C942E
:100B70001B070E940D0738F00E94140720F039F47B
:100B80009F3F19F426F40C940A070EF4E095E7FB56
:100B90000C940407E92F0E942C0758F3BA17620738
:100BA00073078407950720F079F4A6F50C944E0797
:100BB0000EF4E0950B2EBA2FA02D0B01B901900178
:100BC0000C01CA01A0011124FF27591B99F0593FBC
:100BD00050F4503E68F11A16F040A22F232F342F04
:100BE0004427585FF3CF469537952795A795F04052
:100BF0005395C9F77EF41F16BA0B620B730B840B67
:100C0000BAF09150A1F0FF0FBB1F661F771F881F1E
:100C1000C2F70EC0BA0F621F731F841F48F4879576
:100C200077956795B795F7959E3F08F0B0CF939568
:100C3000880F08F09927EE0F9795879508950E94E1
:100C400033060C941B070E94140758F00E940D07EE
:100C500040F029F45F3F29F00C94040751110C94E3
:100C60004F070C940A070E942C0768F39923B1F3ED
:100C7000552391F3951B550BBB27AA2762177307C2
:100C8000840738F09F5F5F4F220F331F441FAA1F56
:100C9000A9F335D00E2E3AF0E0E832D09150504012
:100CA000E695001CCAF72BD0FE2F29D0660F771FC0
:100CB000881FBB1F261737074807AB07B0E809F0A6
:100CC000BB0B802DBF01FF2793585F4F3AF09E3F2B
:100CD000510578F00C9404070C944F075F3FE4F340
:100CE000983ED4F3869577956795B795F7959F5F6E
:100CF000C9F7880F911D9695879597F90895E1E0BA
:100D0000660F771F881FBB1F621773078407BA0718
:100D100020F0621B730B840BBA0BEE1F88F7E09573
:100D200008950E9498066894B1110C944F07089595
:100D30000E94340788F09F5798F0B92F9927B75130
:100D4000B0F0E1F0660F771F881F991F1AF0BA956F
:100D5000C9F714C0B13091F00E944E07B1E0089578
:100D60000C944E07672F782F8827B85F39F0B93F6A
:100D7000CCF3869577956795B395D9F73EF4909522
:100D80008095709561957F4F8F4F9F4F0895E894A0
:100D900009C097FB3EF490958095709561957F4FC3
:100DA0008F4F9F4F9923A9F0F92F96E9BB27939571
:100DB000F695879577956795B795F111F8CFFAF481
:100DC000BB0F11F460FF1BC06F5F7F4F8F4F9F4FB2
:100DD00016C0882311F096E911C0772321F09EE810
:100DE000872F762F05C0662371F096E8862F70E076
:100DF00060E02AF09A95660F771F881FDAF7880F50
:100E00009695879597F9089597F99F6780E870E020
:100E100060E008959FEF80EC089500240A94161670
:100E2000170618060906089500240A9412161306D8
:100E3000140605060895092E0394000C11F4882366
:100E400052F0BB0F40F4BF2B11F460FF04C06F5F82
:100E50007F4F8F4F9F4F089557FD9058440F551F58
:100E600059F05F3F71F04795880F97FB991F61F02C
:100E70009F3F79F087950895121613061406551FA3
:100E8000F2CF4695F1DF08C0161617061806991F0F
:100E9000F1CF86957105610508940895E894BB2704
:100EA00066277727CB0197F908950E9468070C946D
:100EB0001B070E940D0738F00E94140720F09523AD
:100EC00011F00C9404070C940A0711240C944F079A
:100ED0000E942C0770F3959FC1F3950F50E0551FAA
:100EE000629FF001729FBB27F00DB11D639FAA277F
:100EF000F00DB11DAA1F649F6627B00DA11D661FCE
:100F0000829F2227B00DA11D621F739FB00DA11DEE
:100F1000621F839FA00D611D221F749F3327A00DA8
:100F2000611D231F849F600D211D822F762F6A2F44
:100F300011249F5750409AF0F1F088234AF0EE0FA9
:100F4000FF1FBB1F661F771F881F91505040A9F7D6
:100F50009E3F510580F00C9404070C944F075F3FAF
:100F6000E4F3983ED4F3869577956795B795F79512
:100F7000E7959F5FC1F7FE2B880F911D969587958A
:100F800097F90895DB018F939F930E940808BF9102
:100F9000AF91A29F800D911DA39F900DB29F900DC8
:100FA00011240895AA1BBB1B51E107C0AA1FBB1F38
:100FB000A617B70710F0A61BB70B881F991F5A95E5
:100FC000A9F780959095BC01CD010895A1E21A2E54
:100FD000AA1BBB1BFD010DC0AA1FBB1FEE1FFF1FDD
:100FE000A217B307E407F50720F0A21BB30BE40B2D
:100FF000F50B661F771F881F991F1A9469F7609574
:101000007095809590959B01AC01BD01CF0108952D
:101010000E941308A59F900DB49F900DA49F800D72
:10102000911D11240895A29FB001B39FC001A39FF9
:10103000700D811D1124911DB29F700D811D112411
:08104000911D0895F894FFCF03
:1010480001AE0101506F776572204D6F6E69746F44
:101058007220537461727465640D0A003A20006D41
:10106800410D0A00524D5320566F6C74616765003C
:101078005065616B20566F6C7461676500524D5303
:101088002043757272656E74005065616B204375FC
:101098007272656E74005265616C20506F7765726C
:1010A8000072560070560072430070430072500080
:00000001FF
