S01E00003230395F7465616D34395F61746D65676133323870622E73726563BB
S11300000C945A000C9477000C9477000C947700AD
S11300100C9477000C9477000C9477000C94770080
S11300200C9477000C9477000C9477000C94F600F1
S11300300C9477000C9477000C9477000C94770060
S11300400C9477000C9477000C9477000C94770050
S11300500C9477000C94A4000C9477000C94770013
S11300600C9477000C9477000C9477000C94770030
S11300700C9477000C9477000C9477000C94770020
S11300800C9477000C9477000C9477000C94770010
S11300900C9477000C9477000C9477000C94770000
S11300A00C9477000C9477000C9477000C947700F0
S11300B00C94770011241FBECFEFD8E0DEBFCDBF74
S11300C011E0A0E0B1E0E6E5FAE002C005900D928F
S11300D0AC36B107D9F722E0ACE6B1E001C01D921D
S11300E0A433B207E1F70E940B010C9429050C9488
S11300F000001092800089E08093810088E690E0FF
S11301009093890080938800109285001092840057
S113011082E080936F000895ECE7F0E080818F73B4
S113012080838081807F8083808186608083EAE70A
S1130130F0E083E8808310927B0080818860808374
S11301400E947900789408951F920F920FB60F922F
S113015011248F939F93EF93FF9380916E018111EC
S11301603CC080916C01E0916D01F0E0811109C007
S11301708091780090917900EE0FFF1FE252FE4FBC
S113018008C08091780090917900EE0FFF1FEE5621
S1130190FE4F9183808380916D018F5F80936D0109
S11301A080916D018632C8F010926D0180916C01CE
S11301B0811109C080917C00816080937C0081E082
S11301C080936C010AC080917C008E7F80937C00B8
S11301D010926C0181E080936E01FF91EF919F91E9
S11301E08F910F900FBE0F901F9018951F920F9232
S11301F00FB60F9211248F93EF93FF93EAE7F0E089
S1130200808180648083FF91EF918F910F900FBE66
S11302100F901F9018950E9420010E9451010E9486
S11302208C0080E091E00E9464010E94C2038091EE
S11302306F018823D1F30E94A10410926F01F5CFBE
S113024083E59AE4A5E1B0E080938E0190938F0159
S1130250A0939001B093910180E899E9ABEBB3E2EC
S11302608093860190938701A0938801B0938901BC
S113027085EF91EDA7E0B0E080938A0190938B0124
S1130280A0938C01B0938D0180EF9FEFAFE1BDE0AF
S11302908093820190938301A0938401B09385019C
S11302A008951092C5008CE08093C40088E0809388
S11302B0C10086E08093C20008959091C00095FF2C
S11302C0FCCF8093C60008951F93CF93DF93EC0176
S11302D010E0812F90E0FE0101900020E9F73197B2
S11302E0EC1BFD0B8E179F0740F4FE01E80FF91F6E
S11302F080810E945D011F5FECCFDF91CF911F9140
S113030008952F923F924F925F926F927F928F92B5
S11303109F92AF92BF92CF92DF92EF92FF920F9390
S11303201F93CF93DF93CDB7DEB76A970FB6F894D8
S1130330DEBF0FBECDBF20918E0130918F01409161
S113034090015091910129873A874B875C8780916E
S1130350860190918701A0918801B09189018D87D0
S11303609E87AF87B88B20918A0130918B01409191
S11303708C0150918D01298B3A8B4B8B5C8B809136
S1130380820190918301A0918401B09185018D8BAC
S11303909E8BAF8BB88F20917E0130917F0140916D
S11303A08001509181012D833E834F835887809132
S11303B07A0190917B01A0917C01B0917D018983A8
S11303C09A83AB83BC834090760150907701609010
S11303D0780170907901212C312C00E010E01A8E04
S11303E0198EF101EE0FFF1FDF01A252BE4F0D90D7
S11303F0BC91A02D29853A854B855C850E940F050B
S11304004B015C012D853E854F855889821A930ADC
S1130410A40AB50A91E1B594A794979487949A9500
S1130420D1F7EE56FE4FA081B18129893A894B89D3
S11304305C890E940F056B017C012D893E894F89DF
S1130440588DC21AD30AE40AF50A21E1F594E79417
S1130450D794C7942A95D1F7940197FE04C0222714
S1130460332728193909C601D7FE04C088279927DC
S11304708C199D09498D5A8D4217530710F43A8FF0
S1130480298F0817190708F48C01A5019401C501E7
S1130490B4010E94C9042D813E814F815885260FE5
S11304A0371F481F591F2D833E834F835887A70149
S11304B09601C701B6010E94C90429813A814B8182
S11304C05C81260F371F481F591F29833A834B83AA
S11304D05C83A5019401C701B6010E94C904460EBC
S11304E0571E681E791E3FEF231A330A46E224166C
S11304F0310409F076CF8D819E81AF81B8858093D8
S11305007E0190937F01A0938001B09381012981A2
S11305103A814B815C8120937A0130937B01409333
S11305207C0150937D014092760150927701609254
S11305307801709279018091740190917501498DCF
S11305405A8D8417950720F45093750140937401D4
S113055080917201909173018017910720F4109398
S11305607301009372018091700190917101019661
S113057090937101809370016A960FB6F894DEBF70
S11305800FBECDBFDF91CF911F910F91FF90EF90E0
S1130590DF90CF90BF90AF909F908F907F906F909F
S11305A05F904F903F902F9008958F929F92AF92BB
S11305B0BF92CF92DF92EF92FF92CF93DF9380911D
S11305C0700190917101409708F4D1C060917E014F
S11305D070917F01809180019091810120E632E049
S11305E040E050E00E94ED0449015A012115310513
S11305F04105510549F169017A018FEFC81AD80AFA
S1130600E80AF80AF694E794D794C794D501C4018C
S1130610C816D906EA06FB06A8F4C501B401A70169
S113062096010E94ED04BA01A9014C0D5D1D6E1DD9
S11306307F1DD701C6016A017B01F694E794D79424
S1130640C794E6CFEC0102C0C0E0D0E060917A012B
S113065070917B0180917C0190917D0120E632E0D4
S113066040E050E00E94ED0449015A012115310592
S11306704105510549F169017A018FEFC81AD80A79
S1130680E80AF80AF694E794D794C794D501C4010C
S1130690C816D906EA06FB06A8F4C501B401A701E9
S11306A096010E94ED04BA01A9014C0D5D1D6E1D59
S11306B07F1DD701C6016A017B01F694E794D794A4
S11306C0C794E6CF7C0102C0E12CF12C6091760145
S11306D070917701809178019091790120E037E45D
S11306E049E050E00E94ED04D0932B02C0932A020B
S11306F0809174019091750190932D0280932C0246
S1130700F0922F02E0922E02809172019091730177
S1130710909331028093300230933302209332025B
S113072010927E0110927F0110928001109281013B
S113073010927A0110927B0110927C0110927D013B
S1130740109276011092770110927801109279013B
S1130750109275011092740110927301109272013B
S1130760109271011092700181E080936F01DF910A
S1130770CF91FF90EF90DF90CF90BF90AF909F907C
S11307808F90089580916E01882331F00E94810139
S113079010926E010C94D50208950F931F93CF937A
S11307A0DF938C01CB010E94640188E191E00E94F7
S11307B06401C80168EE73E00E94D904CB016AE0C9
S11307C070E00E94D904009719F0805D0E945D01D9
S11307D0C80164E670E00E94D904CB01CAE0D0E00D
S11307E0BE010E94D904805D0E945D018EE20E94D8
S11307F05D01C801BE010E94D904182FCB01BE01BE
S11308000E94D904805D0E945D0180E3810F0E94F3
S11308105D0186E50E945D018DE191E0DF91CF915C
S11308201F910F910C9464010F931F93CF93DF9347
S1130830EC01CB010E94640188E191E00E94640113
S1130840C83E83E0D80780F0CE0168EE73E00E94D2
S1130850D904CB016AE070E00E94D904805D0E9453
S11308605D018CE20E945D01CE0164E670E00E94AD
S1130870D904CB010AE010E0B8010E94D904805DDC
S11308800E945D01CE01B8010E94D904C82FCB019A
S1130890B8010E94D904805D0E945D0180E38C0F41
S11308A00E945D018BE191E0DF91CF911F910F9147
S11308B00C9464010F931F93CF93DF938C01CB01AE
S11308C00E94640188E191E00E946401C80168EE1D
S11308D073E00E94D904CB016AE070E00E94D9045D
S11308E0009719F0805D0E945D01C80164E670E024
S11308F00E94D904CB01CAE0D0E0BE010E94D90411
S1130900805D0E945D018EE20E945D01C801BE010E
S11309100E94D904182FCB01BE010E94D904805D26
S11309200E945D0180E3810F0E945D0187E50E94C2
S11309305D018DE191E0DF91CF911F910F910C94B6
S11309406401CF93DF93CAE2D2E06DE571E0888160
S113095099810E94CD0360E671E08A819B810E94A7
S1130960CD0363E671E08C819D810E94140466E6E8
S113097071E08E819F810E94140469E671E088858C
S113098099850E945A048DE191E0DF91CF910C94F6
S11309906401DB018F939F930E940F05BF91AF9178
S11309A0A29F800D911DA39F900DB29F900D1124C5
S11309B00895AA1BBB1B51E107C0AA1FBB1FA617A2
S11309C0B70710F0A61BB70B881F991F5A95A9F7F4
S11309D080959095BC01CD010895A1E21A2EAA1B21
S11309E0BB1BFD010DC0AA1FBB1FEE1FFF1FA217DB
S11309F0B307E407F50720F0A21BB30BE40BF50BD8
S1130A00661F771F881F991F1A9469F76095709560
S1130A10809590959B01AC01BD01CF0108950E9482
S1130A201A05A59F900DB49F900DA49F800D911D54
S1130A3011240895A29FB001B39FC001A39F700D1C
S1130A40811D1124911DB29F700D811D1124911DD2
S1090A500895F894FFCFA5
S1130A56506F776572204D6F6E69746F7220537490
S1130A6661727465640D0A003A20006D410D0A0036
S1130A76524D5320566F6C74616765005065616B07
S1130A8620566F6C7461676500524D53204375722E
S1130A9672656E74005065616B2043757272656E83
S1130AA674005265616C20506F776572007256004F
S10F0AB670560072430070430072500040
S9030000FC
