:100000000C945A000C9472010C9477000C947700B5
:100010000C9477000C9477000C9477000C94770084
:100020000C9477000C9477000C9477000C945D018D
:100030000C9477000C9477000C9477000C94770064
:100040000C9477000C9477000C9477000C94770054
:100050000C9477000C94D6000C9477000C947700E5
:100060000C9477000C9477000C9477000C94770034
:100070000C9477000C9477000C9477000C94770024
:100080000C9477000C9477000C9477000C94770014
:100090000C9477000C9477000C9477000C94770004
:1000A0000C9477000C9477000C9477000C947700F4
:1000B0000C94770011241FBECFEFD8E0DEBFCDBF78
:1000C00011E0A0E0B1E0E8EAF1E102C005900D9294
:1000D000A037B107D9F722E0A0E7B1E001C01D9237
:1000E000A933B207E1F70E94A5010C94D2080C9441
:1000F00000001092800089E08093810088E690E003
:10010000909389008093880010928500109284005B
:1001100082E080936F000895109285001092840011
:1001200082E086BBE1E8F0E0808181608083EFE6D9
:10013000F0E08081826080830895E1E8F0E08081D2
:10014000887F8083EFE6F0E080818D7F808382E08E
:1001500086BB08958AB18B7F8AB98BB184608BB9D5
:10016000E9E6F0E08081836080838CB381608CBBA2
:100170008DB381608DBB0895ECE7F0E080818F73D3
:1001800080838081807F8083808182608083EAE7B2
:10019000F0E083E8808310927B0080818860808318
:1001A0000E9479000E94AA00789408951F920F92ED
:1001B0000FB60F9211242F933F934F935F936F933A
:1001C0007F938F939F93AF93BF93EF93FF93809110
:1001D0000301882391F080917800909179009093A9
:1001E00002018093010110920301ECE7F0E08081AD
:1001F000807F80830E949D004FC0809100018823F2
:1002000019F01092000148C08091710181110EC057
:10021000E0917201F0E08091780090917900EE0F0A
:10022000FF1FED51FE4F918380830DC0E09172015D
:10023000F0E08091780090917900EE0FFF1FE95671
:10024000FE4F91838083809172018F5F8093720152
:1002500080917201863200F1109272010E949D001D
:100260001092700181E080930001809171018111F1
:1002700009C081E080937101ECE7F0E0808181604A
:1002800080830AC010927101ECE7F0E080818E7FDC
:10029000808381E080937301FF91EF91BF91AF91D3
:1002A0009F918F917F916F915F914F913F912F918E
:1002B0000F900FBE0F901F9018951F920F920FB6C0
:1002C0000F9211248F93EF93FF93EAE7F0E0808180
:1002D00080648083FF91EF918F910F900FBE0F90FC
:1002E0001F9018951F920F920FB60F9211242F9303
:1002F0003F934F935F936F937F938F939F93AF93AE
:10030000BF93EF93FF938091030181110DC0809102
:100310007301811109C080917001811105C081E0D4
:10032000809370010E948C00FF91EF91BF91AF917B
:100330009F918F917F916F915F914F913F912F91FD
:100340000F900FBE0F901F9018950E9473020E948D
:10035000BC00809103018111FCCF0E94000284E067
:1003600091E00E9486020E943804809174018823E3
:10037000D1F30E944D0610927401F5CF8F929F9297
:10038000AF92BF92CF92DF92EF92FF924B015C014E
:10039000611571058105910541F16B017C018FEFBC
:1003A000C81AD80AE80AF80AF694E794D794C794CA
:1003B000D501C40114C0C501B401A70196010E9472
:1003C0009608BA01A9014C0D5D1D6E1D7F1DD70158
:1003D000C6016A017B01F694E794D794C794C816C6
:1003E000D906EA06FB0638F302C080E090E0FF90F1
:1003F000EF90DF90CF90BF90AF909F908F90089537
:10040000CF92DF92EF92FF92609101017091020111
:1004100080E090E00E948B0720E030E040EA50E46A
:100420000E94190820E030EC4FE754E40E94E306F4
:100430006B017C0183E59AE4A5E1B0E08093930130
:1004400090939401A0939501B093960120E030E23F
:1004500048E055E4C701B6010E94190820E030E0E9
:1004600040E058E40E94190820E030E040E05FE3FB
:100470000E9477060E94550760938B0170938C0150
:1004800080938D0190938E0185EF91EDA7E0B0E010
:1004900080938F0190939001A0939101B09392016A
:1004A00020E030E048E454E4C701B6010E94190896
:1004B00020E030E040E058E40E94190820E030E0FD
:1004C00040E05FE30E9477060E9455076093870132
:1004D000709388018093890190938A01FF90EF9037
:1004E000DF90CF9008951092C5008CE08093C400F7
:1004F00088E08093C10086E08093C20008959091C7
:10050000C00095FFFCCF8093C60008951F93CF9342
:10051000DF93EC0110E007C0FE01E80FF91F8081B6
:100520000E947F021F5F812F90E0FE01019000205A
:10053000E9F73197EC1BFD0B8E179F0768F3DF91EE
:10054000CF911F9108954F925F927F928F929F92C9
:10055000AF92BF92CF92DF92EF92FF920F931F93D1
:10056000CF93DF93712CC0E0D0E0412C512CC6C05A
:10057000072D10E0000F111FF801ED51FE4FA08173
:10058000B181209193013091940140919501509156
:1005900096010E94C708C0908B01D0908C01E0901A
:1005A0008D01F0908E014B015C018C189D08AE0806
:1005B000BF08072E71E1B594A794979487947A9514
:1005C000D1F7702DF401D801A956BE4F0D90BC9102
:1005D000A02D20918F013091900140919101509177
:1005E00092010E94C7080091870110918801209113
:1005F000890130918A016B017C01C01AD10AE20A9B
:10060000F30A0B2EB1E1F594E794D794C794BA9509
:10061000D1F7B02D9601A401FF2324F444275527D8
:1006200048195909C601332324F4882799278C19BE
:100630009D094416550608F42A01C817D90708F47D
:10064000EC01092C000CAA08BB08A5019401C50106
:10065000B4010E94860800918301109184012091C9
:10066000850130918601DC01CB01800F911FA21F13
:10067000B31F8093830190938401A0938501B0936D
:1006800086010D2C000CEE08FF08A7019601C7019A
:10069000B6010E94860800917F011091800120918F
:1006A000810130918201DC01CB01800F911FA21FDB
:1006B000B31F80937F0190938001A0938101B09339
:1006C0008201A5019401C701B6010E94860800912C
:1006D0007B0110917C0120917D0130917E01DC0134
:1006E000CB01800F911FA21FB31F80937B019093BA
:1006F0007C01A0937D01B0937E01739485E2871500
:1007000008F036CF8091790190917A018415950592
:1007100020F450927A014092790180917701909172
:1007200078018C179D0720F4D0937801C09377014E
:100730008091750190917601019690937601809356
:100740007501DF91CF911F910F91FF90EF90DF9096
:10075000CF90BF90AF909F908F907F905F904F9081
:100760000895CF92DF92EF92FF92CF93DF93809123
:100770007501909176010A9708F473C06091830126
:100780007091840180918501909186010F2EFCE784
:10079000CF2EDD24D394E12CF12CF02DA70196016E
:1007A0000E949608CA01B9010E94BE01EC01609145
:1007B0007F01709180018091810190918201A70158
:1007C00096010E949608CA01B9010E94BE017C01EF
:1007D00060917B0170917C0180917D0190917E01FF
:1007E00020E63CEC45E050E00E949608EFE2F2E0A3
:1007F000D183C0838091790190917A019383828320
:10080000F582E482809177019091780197838683C5
:100810003187208710928301109284011092850104
:100820001092860110927F01109280011092810136
:100830001092820110927B0110927C0110927D0136
:1008400010927E0110927A01109279011092780133
:1008500010927701109276011092750181E08093D9
:100860007401DF91CF91FF90EF90DF90CF900895CA
:1008700080917301882351F095B180E1892785B972
:100880000E94A302109273010E94B10308950F9376
:100890001F93CF93DF938C01CB010E9486028CE1E2
:1008A00091E00E9486029801369527953695279506
:1008B00036952795A5ECB0E20E94B808AC01529598
:1008C00042954F7045275F7045279A01ADECBCEC0F
:1008D0000E94B808969587959695879596958795E1
:1008E0009C01220F331F880F991F880F991F880FB3
:1008F000991F820F931F9A01281B390BC90100977A
:1009000019F0805D0E947F029801369527953695F3
:100910002795ABE7B4E10E94B808AC01569547951E
:100920009A01ADECBCEC0E94B80896958795969517
:100930008795969587959C01220F331F880F991FE5
:10094000880F991F880F991F820F931F9A01281BE8
:10095000390BC901805D0E947F028EE20E947F02F6
:100960009801ADECBCEC0E94B808EC01D695C79597
:10097000D695C795D695C7959E010E94B8089695BD
:10098000879596958795969587959C01220F331F9D
:10099000880F991F880F991F880F991F820F931F27
:1009A0009E01281B390BC901805D0E947F02CE0188
:1009B000880F991FCC0FDD1FCC0FDD1FCC0FDD1F63
:1009C000C80FD91FC8018C1B9D0B805D0E947F0240
:1009D00086E50E947F0281E291E00E948602DF911B
:1009E000CF911F910F9108950F931F93CF93DF9392
:1009F0008C01CB010E9486028CE191E00E9486026C
:100A0000083E23E0120790F1980136952795369518
:100A1000279536952795A5ECB0E20E94B808AC0161
:100A2000529542954F7045275F7045279A01ADEC6E
:100A3000BCEC0E94B80896958795969587959695F3
:100A400087959C01220F331F880F991F880F991FCC
:100A5000880F991F820F931F9A01281B390BC90118
:100A6000805D0E947F028CE20E947F029801369591
:100A7000279536952795ABE7B4E10E94B808AC01FD
:100A8000569547959A01ADECBCEC0E94B808969536
:100A9000879596958795969587959C01220F331F8C
:100AA000880F991F880F991F880F991F820F931F16
:100AB0009A01281B390BC901805D0E947F029801B1
:100AC000ADECBCEC0E94B808EC01D695C795D69564
:100AD000C795D695C7959E010E94B80896958795AB
:100AE00096958795969587959C01220F331F880FC1
:100AF000991F880F991F880F991F820F931F9E01BE
:100B0000281B390BC901805D0E947F02CE01880F2E
:100B1000991FCC0FDD1FCC0FDD1FCC0FDD1FC80FC1
:100B2000D91FC8018C1B9D0B805D0E947F028FE145
:100B300091E00E948602DF91CF911F910F9108955D
:100B40000F931F93CF93DF938C01CB010E948602FA
:100B50008CE191E00E9486029801369527953695A2
:100B6000279536952795A5ECB0E20E94B808AC0110
:100B7000529542954F7045275F7045279A01ADEC1D
:100B8000BCEC0E94B80896958795969587959695A2
:100B900087959C01220F331F880F991F880F991F7B
:100BA000880F991F820F931F9A01281B390BC901C7
:100BB000009719F0805D0E947F0298013695279575
:100BC00036952795ABE7B4E10E94B808AC0156957D
:100BD00047959A01ADECBCEC0E94B80896958795B4
:100BE00096958795969587959C01220F331F880FC0
:100BF000991F880F991F880F991F820F931F9A01C1
:100C0000281B390BC901805D0E947F028EE20E9481
:100C10007F029801ADECBCEC0E94B808EC01D695BF
:100C2000C795D695C795D695C7959E010E94B808D9
:100C30009695879596958795969587959C01220F11
:100C4000331F880F991F880F991F880F991F820FD4
:100C5000931F9E01281B390BC901805D0E947F02F2
:100C6000CE01880F991FCC0FDD1FCC0FDD1FCC0FDD
:100C7000DD1FC80FD91FC8018C1B9D0B805D0E9412
:100C80007F0287E50E947F0281E291E00E94860256
:100C9000DF91CF911F910F910895CF93DF93CFE212
:100CA000D2E061E671E0888199810E94470464E6A0
:100CB00071E08A819B810E94470467E671E08C8124
:100CC0009D810E94F4046AE671E08E819F810E94FA
:100CD000F4046DE671E0888599850E94A00581E2A3
:100CE00091E00E948602DF91CF9108955058BB2772
:100CF000AA270E948E060C94DF070E94D10738F0C5
:100D00000E94D80720F039F49F3F19F426F40C9480
:100D1000CE070EF4E095E7FB0C94C807E92F0E947C
:100D2000F00758F3BA17620773078407950720F096
:100D300079F4A6F50C9412080EF4E0950B2EBA2F58
:100D4000A02D0B01B90190010C01CA01A0011124D1
:100D5000FF27591B99F0593F50F4503E68F11A167D
:100D6000F040A22F232F342F4427585FF3CF46950E
:100D700037952795A795F0405395C9F77EF41F1630
:100D8000BA0B620B730B840BBAF09150A1F0FF0FFA
:100D9000BB1F661F771F881FC2F70EC0BA0F621FE6
:100DA000731F841F48F4879577956795B795F795D6
:100DB0009E3F08F0B0CF9395880F08F09927EE0F6B
:100DC0009795879508950E94F7060C94DF070E9477
:100DD000D80758F00E94D10740F029F45F3F29F06E
:100DE0000C94C80751110C9413080C94CE070E9460
:100DF000F00768F39923B1F3552391F3951B550B35
:100E0000BB27AA2762177307840738F09F5F5F4FDD
:100E1000220F331F441FAA1FA9F335D00E2E3AF01C
:100E2000E0E832D091505040E695001CCAF72BD034
:100E3000FE2F29D0660F771F881FBB1F2617370785
:100E40004807AB07B0E809F0BB0B802DBF01FF27B7
:100E500093585F4F3AF09E3F510578F00C94C807C5
:100E60000C9413085F3FE4F3983ED4F3869577958E
:100E70006795B795F7959F5FC9F7880F911D969570
:100E8000879597F90895E1E0660F771F881FBB1FCC
:100E9000621773078407BA0720F0621B730B840B79
:100EA000BA0BEE1F88F7E09508950E945C076894DE
:100EB000B1110C94130808950E94F80788F09F5709
:100EC00098F0B92F9927B751B0F0E1F0660F771F6E
:100ED000881F991F1AF0BA95C9F714C0B13091F064
:100EE0000E941208B1E008950C941208672F782F21
:100EF0008827B85F39F0B93FCCF386957795679529
:100F0000B395D9F73EF490958095709561957F4F94
:100F10008F4F9F4F0895E89409C097FB3EF490953A
:100F20008095709561957F4F8F4F9F4F9923A9F0C2
:100F3000F92F96E9BB279395F69587957795679551
:100F4000B795F111F8CFFAF4BB0F11F460FF1BC095
:100F50006F5F7F4F8F4F9F4F16C0882311F096E928
:100F600011C0772321F09EE8872F762F05C06623D6
:100F700071F096E8862F70E060E02AF09A95660F8F
:100F8000771F881FDAF7880F9695879597F9089548
:100F900097F99F6780E870E060E008959FEF80EC2C
:100FA000089500240A9416161706180609060895CF
:100FB00000240A9412161306140605060895092E35
:100FC0000394000C11F4882352F0BB0F40F4BF2BA4
:100FD00011F460FF04C06F5F7F4F8F4F9F4F0895E4
:100FE00057FD9058440F551F59F05F3F71F04795DA
:100FF000880F97FB991F61F09F3F79F087950895BF
:10100000121613061406551FF2CF4695F1DF08C0DD
:10101000161617061806991FF1CF869571056105FA
:1010200008940895E894BB2766277727CB0197F9A2
:1010300008950E942C080C94DF070E94D10738F015
:101040000E94D80720F0952311F00C94C8070C9447
:10105000CE0711240C9413080E94F00770F3959F9B
:10106000C1F3950F50E0551F629FF001729FBB279F
:10107000F00DB11D639FAA27F00DB11DAA1F649F3B
:101080006627B00DA11D661F829F2227B00DA11DEE
:10109000621F739FB00DA11D621F839FA00D611D74
:1010A000221F749F3327A00D611D231F849F600D95
:1010B000211D822F762F6A2F11249F5750409AF0BE
:1010C000F1F088234AF0EE0FFF1FBB1F661F771F4A
:1010D000881F91505040A9F79E3F510580F00C9415
:1010E000C8070C9413085F3FE4F3983ED4F3869549
:1010F00077956795B795F795E7959F5FC1F7FE2BB5
:10110000880F911D9695879597F90895DB018F9328
:101110009F930E94C708BF91AF91A29F800D911D20
:10112000A39F900DB29F900D11240895A1E21A2E55
:10113000AA1BBB1BFD010DC0AA1FBB1FEE1FFF1F7B
:10114000A217B307E407F50720F0A21BB30BE40BCB
:10115000F50B661F771F881F991F1A9469F7609512
:101160007095809590959B01AC01BD01CF010895CC
:10117000A29FB001B39FC001A39F700D811D1124D8
:10118000911DB29F700D811D1124911D08950E9423
:10119000B808A59F900DB49F900DA49F800D911D40
:0811A00011240895F894FFCF1B
:1011A80001AE0101506F776572204D6F6E69746FE3
:1011B8007220537461727465640D0A003A20006DE0
:1011C800410D0A00524D5320566F6C7461676500DB
:1011D8005065616B20566F6C7461676500524D53A2
:1011E8002043757272656E74005065616B2043759B
:1011F8007272656E74005265616C20506F7765720B
:10120800007256007056007243007043007250001E
:00000001FF
