S01E00003230395F7465616D34395F61746D65676133323870622E73726563BB
S11300000C945A000C9477000C9477000C947700AD
S11300100C9477000C9477000C9477000C94770080
S11300200C9477000C9477000C9477000C94EF00F8
S11300300C9477000C9477000C9477000C94770060
S11300400C9477000C9477000C9477000C94770050
S11300500C9477000C94A1000C9477000C94770016
S11300600C9477000C9477000C9477000C94770030
S11300700C9477000C9477000C9477000C94770020
S11300800C9477000C9477000C9477000C94770010
S11300900C9477000C9477000C9477000C94770000
S11300A00C9477000C9477000C9477000C947700F0
S11300B00C94770011241FBECFEFD8E0DEBFCDBF74
S11300C011E0A0E0B1E0E0EBFBE002C005900D928E
S11300D0AC36B107D9F721E0ACE6B1E001C01D921E
S11300E0A83EB207E1F70E9404010C94D6050C94D3
S11300F000001092800089E08093810088E690E0FF
S11301009093890080938800109285001092840057
S113011082E080936F000895ECE7F0E080818F73B4
S113012080838081807F8083EAE7F0E083E88083B6
S113013010927B008081886080830E94790078948B
S113014008951F920F920FB60F9211248F939F93CD
S1130150EF93FF9380916C01811116C0E0916D01C2
S1130160F0E08091780090917900EE0FFF1FE85441
S1130170FE4F91838083ECE7F0E08081816080838F
S113018081E080936C0122C0E0916D01F0E08091E8
S1130190780090917900EE0FFF1FEE56FE4F918389
S11301A08083ECE7F0E080818E7F808310926C0185
S11301B080916D018F5F80936D0180916D0183311A
S11301C028F081E080936E0110926D01FF91EF9110
S11301D09F918F910F900FBE0F901F9018951F92B3
S11301E00F920FB60F9211248F93EF93FF93EAE7C8
S11301F0F0E0808180648083FF91EF918F910F9074
S11302000FBE0F901F9018950E945B010E948C01F5
S11302100E948C0080E091E00E949F010E945003A4
S113022080916F018823D1F30E94610510926F01C0
S1130230F5CF8F929F92AF92BF92CF92DF92EF92BF
S1130240FF924B015C01611571058105910541F136
S11302506B017C018FEFC81AD80AE80AF80AF694F1
S1130260E794D794C794D501C40114C0C501B4015F
S1130270A70196010E949A05BA01A9014C0D5D1DC2
S11302806E1D7F1DD701C6016A017B01F694E794B8
S1130290D794C794C816D906EA06FB0638F302C0F9
S11302A080E090E0FF90EF90DF90CF90BF90AF9010
S11302B09F908F90089583E59AE4A5E1B0E0809340
S11302C08E0190938F01A0939001B093910180E8E7
S11302D099E9ABEBB3E28093860190938701A093F5
S11302E08801B093890185EF91EDA7E0B0E0809398
S11302F08A0190938B01A0938C01B0938D0180EFC0
S11303009FEFAFE1BDE08093820190938301A093BE
S11303108401B093850108951092C5008CE0809308
S1130320C40088E08093C10086E08093C2000895F1
S11303309091C00095FFFCCF8093C60008951F9351
S1130340CF93DF93EC0110E007C0FE01E80FF91F23
S113035080810E9498011F5F812F90E0FE0101902F
S11303600020E9F73197EC1BFD0B8E179F0768F30C
S1130370DF91CF911F9108954F925F927F928F9258
S11303809F92AF92BF92CF92DF92EF92FF920F9320
S11303901F93CF93DF93712CC0E0D0E0412C512CFC
S11303A0C6C0072D10E0000F111FF801E854FE4FDE
S11303B0A081B18120918E0130918F0140919001F3
S11303C0509191010E94CB05C0908601D090870185
S11303D0E0908801F09089014B015C018C189D0824
S11303E0AE08BF08072E71E1B594A794979487943B
S11303F07A95D1F7702DF401D801AE56BE4F0D9009
S1130400BC91A02D20918A0130918B0140918C01E7
S113041050918D010E94CB050091820110918301BE
S113042020918401309185016B017C01C01AD10AAD
S1130430E20AF30A0B2EB1E1F594E794D794C7943A
S1130440BA95D1F7B02D9601A401FF2324F44427D3
S1130450552748195909C601332324F488279927B5
S11304608C199D094416550608F42A01C817D907A2
S113047008F4EC01092C000CAA08BB08A50194019E
S1130480C501B4010E948A0500917E0110917F018B
S11304902091800130918101DC01CB01800F911FFB
S11304A0A21FB31F80937E0190937F01A0938001CC
S11304B0B09381010D2C000CEE08FF08A7019601F2
S11304C0C701B6010E948A0500917A0110917B014F
S11304D020917C0130917D01DC01CB01800F911FC3
S11304E0A21FB31F80937A0190937B01A0937C0198
S11304F0B0937D01A5019401C701B6010E948A054C
S11305000091760110917701209178013091790161
S1130510DC01CB01800F911FA21FB31F80937601D2
S113052090937701A0937801B0937901739482E159
S1130530871508F036CF8091740190917501841568
S1130540950520F4509275014092740180917201D6
S1130550909173018C179D0720F4D0937301C0937D
S113056072018091700190917101019690937101D3
S113057080937001DF91CF911F910F91FF90EF90C5
S1130580DF90CF90BF90AF909F908F907F905F90BF
S11305904F900895CF92DF92EF92FF92CF93DF9323
S11305A080917001909171010A9708F472C0609172
S11305B07E0170917F0180918001909181010F2EC5
S11305C0FEEBCF2ED12CE12CF12CF02DA7019601BE
S11305D00E949A05CA01B9010E941901EC016091B7
S11305E07A0170917B0180917C0190917D01A7013A
S11305F096010E949A05CA01B9010E9419017C0161
S113060060917601709177018091780190917901E0
S113061020E336EE42E050E00E949A05EEEDF1E070
S1130620D183C083809174019091750193838283F7
S1130630F582E4828091720190917301978386839D
S11306403187208710927E0110927F0110928001E1
S11306501092810110927A0110927B0110927C0118
S113066010927D0110927601109277011092780118
S11306701092790110927501109274011092730115
S113068010927201109271011092700181E08093B6
S11306906F01DF91CF91FF90EF90DF90CF9008959D
S11306A080916E01882331F00E94BC0110926E018A
S11306B00E94CA0208950F931F93CF93DF938C0176
S11306C0CB010E949F0188E191E00E949F01980163
S11306D0369527953695279536952795A5ECB0E25E
S11306E00E94BC05AC01529542954F7045275F703E
S11306F045279A01ADECBCEC0E94BC059695879504
S113070096958795969587959C01220F331F880FA0
S1130710991F880F991F880F991F820F931F9A01A1
S1130720281B390BC901009719F0805D0E949801BC
S113073098013695279536952795ABE7B4E10E9445
S1130740BC05AC01569547959A01ADECBCEC0E94F2
S1130750BC059695879596958795969587959C0162
S1130760220F331F880F991F880F991F880F991F15
S1130770820F931F9A01281B390BC901805D0E94C7
S113078098018EE20E9498019801ADECBCEC0E94A5
S1130790BC05EC01D695C795D695C795D695C79552
S11307A09E010E94BC05969587959695879596958A
S11307B087959C01220F331F880F991F880F991F5B
S11307C0880F991F820F931F9E01281B390BC901A3
S11307D0805D0E949801CE01880F991FCC0FDD1F08
S11307E0CC0FDD1FCC0FDD1FC80FD91FC8018C1B18
S11307F09D0B805D0E94980186E50E9498018DE121
S113080091E00E949F01DF91CF911F910F91089574
S11308100F931F93CF93DF938C01CB010E949F0111
S113082088E191E00E949F01083E23E0120790F1C5
S11308309801369527953695279536952795A5ECF5
S1130840B0E20E94BC05AC01529542954F70452719
S11308505F7045279A01ADECBCEC0E94BC059695EF
S1130860879596958795969587959C01220F331FBA
S1130870880F991F880F991F880F991F820F931F44
S11308809A01281B390BC901805D0E9498018CE2F2
S11308900E94980198013695279536952795ABE7E0
S11308A0B4E10E94BC05AC01569547959A01ADECA4
S11308B0BCEC0E94BC059695879596958795969570
S11308C087959C01220F331F880F991F880F991F4A
S11308D0880F991F820F931F9A01281B390BC90196
S11308E0805D0E9498019801ADECBCEC0E94BC05AF
S11308F0EC01D695C795D695C795D695C7959E0113
S11309000E94BC05969587959695879596958795AB
S11309109C01220F331F880F991F880F991F880F7E
S1130920991F820F931F9E01281B390BC901805DFB
S11309300E949801CE01880F991FCC0FDD1FCC0FA8
S1130940DD1FCC0FDD1FC80FD91FC8018C1B9D0BE9
S1130950805D0E9498018BE191E00E949F01DF91EC
S1130960CF911F910F9108950F931F93CF93DF930E
S11309708C01CB010E949F0188E191E00E949F01BC
S11309809801369527953695279536952795A5ECA4
S1130990B0E20E94BC05AC01529542954F704527C8
S11309A05F7045279A01ADECBCEC0E94BC0596959E
S11309B0879596958795969587959C01220F331F69
S11309C0880F991F880F991F880F991F820F931FF3
S11309D09A01281B390BC901009719F0805D0E9408
S11309E0980198013695279536952795ABE7B4E19C
S11309F00E94BC05AC01569547959A01ADECBCEC40
S1130A000E94BC05969587959695879596958795AA
S1130A109C01220F331F880F991F880F991F880F7D
S1130A20991F820F931F9A01281B390BC901805DFE
S1130A300E9498018EE20E9498019801ADECBCECF2
S1130A400E94BC05EC01D695C795D695C795D69559
S1130A50C7959E010E94BC059695879596958795A6
S1130A60969587959C01220F331F880F991F880F35
S1130A70991F880F991F820F931F9E01281B390B02
S1130A80C901805D0E949801CE01880F991FCC0F87
S1130A90DD1FCC0FDD1FCC0FDD1FC80FD91FC80110
S1130AA08C1B9D0B805D0E94980187E50E94980134
S1130AB08DE191E00E949F01DF91CF911F910F91F1
S1130AC00895CF93DF93CEEDD1E06DE571E0888199
S1130AD099810E945B0360E671E08A819B810E9498
S1130AE05B0363E671E08C819D810E94080466E6E5
S1130AF071E08E819F810E94080469E671E0888517
S1130B0099850E94B4048DE191E00E949F01DF91D8
S1130B10CF910895DB018F939F930E94CB05BF91E2
S1130B20AF91A29F800D911DA39F900DB29F900D38
S1130B3011240895A1E21A2EAA1BBB1BFD010DC0AE
S1130B40AA1FBB1FEE1FFF1FA217B307E407F50779
S1130B5020F0A21BB30BE40BF50B661F771F881F55
S1130B60991F1A9469F760957095809590959B01EB
S1130B70AC01BD01CF010895A29FB001B39FC00194
S1130B80A39F700D811D1124911DB29F700D811DB5
S1130B901124911D08950E94BC05A59F900DB49F3A
S1130BA0900DA49F800D911D11240895F894FFCFFA
S1130BB0506F776572204D6F6E69746F7220537435
S1130BC061727465640D0A003A20006D410D0A00DB
S1130BD0524D5320566F6C74616765005065616BAC
S1130BE020566F6C7461676500524D5320437572D3
S1130BF072656E74005065616B2043757272656E28
S1130C0074005265616C20506F77657200725600F3
S10F0C10705600724300704300725000E4
S9030000FC
